:020000040800F2
:10000000C805002091200008B11F0008B31F000898
:10001000B51F0008B71F0008B91F00080000000046
:10002000000000000000000000000000BB1F0008EE
:10003000BD1F000800000000BF1F0008C11F00080E
:10004000DD200008E1200008E5200008E920000884
:10005000ED200008F1200008F5200008F920000834
:10006000FD200008012100080521000809210008E1
:100070000D21000811210008152100081921000890
:100080001D21000821210008252100082921000840
:10009000D11F00083121000835210008392100084E
:1000A0003D210008412100084521000849210008A0
:1000B0004D21000851210008552100085921000850
:1000C0005D21000861210008652100086921000800
:1000D0006D210008712100087521000879210008B0
:1000E0007D21000881210008D51F00088921000812
:1000F0008D21000891210008952100089921000810
:100100000000000000000000000000009D21000829
:10011000A1210008A5210008A9210008AD2100089F
:10012000B1210008B5210008B9210008BD2100084F
:10013000C1210008C52100080000000000000000E7
:10014000C9210008CD210008D121000800000000CD
:10015000000000000000000000000000000000009F
:100160000000000000000000D5210008D92100088F
:10017000DD21000800000000000000000000000079
:1001800000000000E121000810B5DFF8884700B941
:100190002BE000F099F80068804720680A3010BD15
:1001A00080B5DFF87007DFF8702700685278C178F3
:1001B0008A420CD38278002A04BF8288002A06D1A2
:1001C000817200F081F840688047002002BD022063
:1001D00002BD10B5DFF83C4700B906E000F074F846
:1001E0008068804720680C3010BD206801210182A2
:1001F000002010BD10B5DFF81C47DFF8202720686D
:100200001268C17840799269904721688A7A92B1E0
:10021000002804BF087900280DD1887858B900F06B
:1002200053F8C068804720684179C1722068C1785E
:100230000173002010BD022010BD1CB5DFF8D416DC
:10024000096810B9022008823CE0DFF8D44600209B
:100250002080002208787F23184215D1487A810631
:100260004CBF42F0020102F0FD01217040062178EE
:1002700054BF01F0FE0041F00100207000F024F8AE
:1002800000698047204616BD00F07F03012BF9D09E
:1002900000F07F00022815D14879DFF8883600F099
:1002A0000F01000653F8210042F0010205D500F0CD
:1002B00030001028E2D12270E0E700F44050B0F5A1
:1002C000805FF7E7002016BDDFF85C060068704726
:1002D000F8B5DFF840060068017811F07F0104D11D
:1002E000417A01F0DF0141724FE0022901BF4188EC
:1002F0000029017900294AD14179DFF8284621F007
:1003000080050A0654F825204CBF02F0300202F4A2
:100310004052DFF804361B789D4238D2002A1CBFB9
:10032000807A002833D0080654F825000BD500F059
:100330003000102825D1284600F098FB30212846AF
:1003400000F033FB1DE000F44050B0F5805F18D1A1
:1003500048F280064BF68F7745B900F0BAFA20686C
:10036000384080F44050304320600AE0284600F0D6
:100370006BFB54F82500384080F44050304344F87B
:100380002500FFF7A1FF406980470020F2BD022051
:10039000F2BD38B5DFF87C05DFF8881502685379BF
:1003A00023F080001C0651F820404CBF04F03004BC
:1003B00004F44054DFF860552D78A84206D25588E1
:1003C00025B9002C1CBF927A002A01D1022032BD2F
:1003D0001B0651F8203048F2800205D548F6BF745C
:1003E000234083F0100304E04BF68F74234083F422
:1003F00080531A4341F82020FFF766FF8069804749
:10040000002032BD80B5DFF80C050068417A41F06C
:1004100020014172FFF758FFC0698047002002BDEC
:10042000DFF8F0241268538A20B98888C01A108235
:1004300000207047086818187047F8B5DFF8D454E2
:10044000286800F11004A1682688080018BF002E53
:1004500014D0A088864288BF0646304688470746A3
:100460002088801B2080608830186080002000F089
:1004700019FB01463246384600F07AFB2088DFF847
:10048000AC6450B1DFF8A8044FF440510180002162
:10049000002000F00EFB302030802188A2882868E0
:1004A000914228BF032101D211B105210172F1BD92
:1004B000062101720022DFF87C04DFF87C1400685A
:1004C00080B241F8102030203080F1BD2DE9F84392
:1004D000DFF84044DFF85454206800F110063188FA
:1004E000002904BF007A042816D1DFF850040178EF
:1004F00001290DD1DFF83C14DFF83C24096889B2EA
:10050000002342F8113030212980042703702CE0A9
:1005100010200727288028E0B6F80480884505D3F6
:100520000427414588BF4146884600E00227B1685C
:10053000404688478146002000F0B3FA0146424613
:10054000484600F000FB4146002000F0B2FA308837
:10055000A0EB080030804FF4405170884044708018
:1005600030202880DFF8C803018020680772BDE8CA
:10057000F18338B5DFF89C437F2220680178457805
:10058000114238D1092D02D1FFF70AFE47E0052DAF
:100590001BD1C17880294FD28178002901BF818881
:1005A0000029807A002847D1DFF88813DFF88823F4
:1005B000096889B2002342F811300620DFF86C1375
:1005C00030220A802168087231BD032D08D1C1781C
:1005D000012904BF8088002823D1FFF713FF1EE004
:1005E000012D04BFC17801291BD18188C9B9407A86
:1005F00080060DD415E001F07F00012804D10B2DF9
:100600000FD1FFF7F7FD0AE002280AD1012D02D130
:10061000FFF75EFE03E0032D03D1FFF7BAFE0028CB
:10062000C2D0BE492846096849698847032808BFDF
:100630000920C7D00028B7D00820C3E738B5B54D8A
:10064000B64C28684178062913D101787F221142DF
:100650002AD18078012802D12068C1696AE0022885
:1006600002D12068016A65E003281DD12068416A33
:1006700060E000293FD14188002904BFC1880229D8
:1006800012D1017981B901787F22114204BF828899
:10069000002A2ED001F07F02012A10D100F08BF841
:1006A00010B92868807A20BB2868216840780969D9
:1006B0008847032847D128680921017231BD01F01C
:1006C0007F010229F0D14079964B00F00F0100F034
:1006D0007002000653F821004CBF00F0300000F417
:1006E00040508D4B1B789942DED2002ADCD1002885
:1006F000DAD093491EE0082905D100787F2108420D
:10070000D2D1904916E00A2902BF017801F07F0199
:100710000129C9D1817A0029C6D04188002901BFA9
:1007200001790029C1880129BED100F044F80028D0
:10073000BAD185490800B7D0286800224282816179
:1007400000208847002029684FF6FF730A8A9A42E2
:1007500008BF092004D0022818BF002A02D10820AF
:10076000087231BD087800061ED5C888009023683D
:10077000009C944202D2009808820FE082420DD27F
:1007800093F82C006D4C824238BF002005D392FBB9
:10079000F0F500FB152008B90120207093F82C001B
:1007A0008882BDE8314091E6032008724FF4405141
:1007B0005F48018031BD226840799269002110476D
:1007C00038B55C4861490068524C80B231F810007D
:1007D000216840000A7A00F1804000F5C040092AF3
:1007E00014D010F8012B0A70216810F8012B4A7000
:1007F000851C35F8040B00F0A1F921684880288891
:1008000000F09CF921688880A888C88001212068B0
:1008100001722068C08810B9FFF7ABFE01E0FFF756
:100820000DFFBDE831403EE010B53A4C2068017A3A
:10083000022918BF042904D1FFF748FE2068007A76
:1008400014E0062911D14178052902BF01787F22E1
:10085000114206D1C07800F042F8FFF735FD006A7A
:1008600080472E48006880688047082017E010B550
:10087000284C2068007A022818BF04280ED00328CC
:1008800018BF052804D1FFF7D8FD2068007A06E0DC
:10089000072803D121480068C068804708202168E4
:1008A0000872BDE8104080B500F013F819480068E0
:1008B000017A082906D11E494FF480520A8010227D
:1008C0001A490A80007A092801D1012002BD0020BE
:1008D00002BD1F4890F82C10002000F0F1B870B550
:1008E0000D49104B0978002248F68F760BE0D4B200
:1008F00053F824503540254345F4004545F0800524
:1009000043F82450521C8A42F1D3124940F080002F
:10091000086070BD900100206C010020940100204F
:10092000A4010020005C004098010020AA010020E2
:10093000A8010020505C004004600040BF0100207E
:100940003B02000889010008D3010008086000404C
:10095000540000204C5C0040704710B450F8041B59
:1009600081B102681218001D50F8043BDC0744BF37
:10097000A9F10104E31852F8044B43F8044B091F92
:10098000F9D1EBE710BC70474FF6F8710840DFF87B
:1009900094110860704710B5DFF88C2148F68F1469
:1009A00052F820302340194324E010B5DFF87821B5
:1009B00048F6BF7452F820302340CC0648BF83F07D
:1009C0001003890648BF83F020030FE010B5DFF85D
:1009D00058214BF68F7452F820302340CC0448BF86
:1009E00083F48053890448BF83F4005343F40041E7
:1009F00041F0800142F8201010BDDFF82C1148F6BC
:100A0000BF7351F820201A4082F0300242F40042B5
:100A100015E0DFF814114BF68F7351F820201A40BF
:100A200082F4405242F4004209E0DFF8FC1048F63C
:100A30008F6351F820201A4042F40042FFE742F051
:100A4000800241F820207047DFF8DC1051F82020A8
:100A500052040AD551F8202048F68F731A4042F408
:100A6000404242F0800241F820207047DFF8B81081
:100A700051F8202052060AD551F8202048F68F73ED
:100A80001A4042F4004242F0C00241F82020704770
:100A900032E0244A4908126892B202EBC000234AAD
:100AA00031E034E01F49096889B201EBC0001F49F9
:100AB00033E01C4A126892B202EBC0001C4A23E0E9
:100AC000184A3F29126892B202EBC000194A02EBA1
:100AD000400009D34A091F23194208BF521E1204BD
:100AE000910941F4004105E04A08C90748BF521C7A
:100AF00012049109016070470A4A4908126892B2CB
:100B000002EBC0000C4A490042F81010704705493A
:100B1000096889B201EBC000074951F8100080B2A2
:100B200070470000505C0040005C004008600040DE
:100B3000046000400C600040006000400106090CA9
:100B400041EA1020704710B5490001F18041521C64
:100B500001F5C041521009E010F8013B10F8014BBB
:100B600043EA042321F8023B891C521EF4D110BD34
:100B7000490001F18041521C01F5C041521004E0CE
:100B800051F8043B20F8023B521EF9D1704750F84F
:100B9000041B61B150F8042BD30744BFA9F1010332
:100BA0009A18002342F8043B091FFAD1EFE7704777
:100BB00010B582B004460020ADF8000000F014F932
:100BC000217862789DF801001143A278114308430F
:100BD0008DF80100217962799DF800001143A27916
:100BE0001143E278114308438DF800000DF1010232
:100BF0002021322000F025F800AA23211DE010B5A5
:100C000082B000F00FF89DF8000000F00C008DF8A5
:100C10000000217862781143A2781143E2781143F1
:100C2000084306E00446012300AA212132206AE09D
:100C300020438DF8000000AA2121322000F001F8A5
:100C400013BD2DE9F843A44DA44F4FF42046804630
:100C5000894614462E604FF4004100F04CF818B15C
:100C600000F04CF8F7D135E04FF4005000904FF011
:100C7000807300F03AF82E6000F03CF818B900F0EC
:100C80003DF8F9D126E04946384600F081F92E605A
:100C9000802100F030F818B900F030F8F8D119E0F0
:100CA000002000904FF0007300F01FF82E6000F05D
:100CB00021F818B900F022F8F9D10BE02178384674
:100CC00000F066F92E60202100F015F830B900F030
:100CD00015F8F8D100F080FA80B204E020213846FF
:100CE00000F062F90020BDE8F28301224146384657
:100CF00000F03AB90221384600F04FB92868411E89
:100D00002960002870472DE9F047734FDFF8CC9138
:100D10004FF4204582B082460C4690461E463D6008
:100D20004FF4004100F058F818B100F058F8F7D12E
:100D300047E04FF4005000900023012251464846FE
:100D400000F012F93D60022100F046F818B900F0F9
:100D500046F8F8D135E0022E28BF44F08004214641
:100D6000484600F015F93D60402100F035F818B90B
:100D700000F035F8F8D124E04FF4105000904FF017
:100D80000073F2B25146484600F0EEF805E04846DE
:100D900000F000F908F8010B761EB6B2002E3D6097
:100DA00008D0042100F018F80028F0D100F017F85E
:100DB000F7D106E0202100F00FF830B900F00FF86D
:100DC000F8D100F009FA80B204E02021484600F092
:100DD000EBF80020BDE8F687484600F0DEB838683A
:100DE000411E39600028704730B58BB001214FF4A7
:100DF000001000F045FB01214FF4802000F02EFB95
:100E000000F079F800F077F800F075F8344C04221F
:100E10000621204600F0A7FB04220721204600F00F
:100E2000A2FB02208DF8040000208DF806000220AD
:100E30008DF8070003208DF80500402000F056F8DB
:100E4000802000F053F800208DF80400ADF8060073
:100E500003208DF805000420009000A9214C2046B5
:100E600000F046FB0221042000F090FB02200290DB
:100E700000208DF80C0008208DF80D0001208DF861
:100E80000E0002A800F096FB002007900590069047
:100E9000089009900A9004A91348104D0490284620
:100EA00000F02EF80121284600F055F8102000909F
:100EB00000208DF804008DF8060003208DF8050051
:100EC00000208DF8070000A9204600F011FB20202B
:100ED00000F00CF80BB030BD680100200054004059
:100EE000000400480010004825209000009000A950
:100EF000204600F0FDBA01214FF4001000F0AEBA18
:100F00000268204B52085200026002681A404B6887
:100F10001A438B6842EA032202600A6822F0706278
:100F20000261026842F00102026000228260C26037
:100F30008A690B691A438260826842F400428260C7
:100F40000268CB681A43026042680F4B49691A4035
:100F50001143416070470029016812BF41F001014F
:100F6000490849000160704770B5049C4568074E08
:100F70003540890555EA915141EA0241194321431F
:100F8000416070BDFFE0CF00FF7FFF07009800FCCD
:100F900081627047406AC0B270478069002208428F
:100FA00018BF012210467047C1617047834C04F19D
:100FB000080000F043F9E0686421B0FBF1F0B0F103
:100FC000807F0BD200027E49000A401E4860F0225A
:100FD0007C480270002088600720086000F04BF811
:100FE00000F057F86FF001050CE06078246548B117
:100FF0000020607104222146812000F06BFB01205B
:10100000FFF7FBFC20790428FCD10020207104F1BB
:10101000440000F061F8002004EB8001DFED650A78
:1010200091ED110A80EE200A401C81ED110A03287F
:10103000F2DB002094ED120A6070A07000F014F84A
:10104000B8BF142002DB032801DBEC20607094EDB4
:10105000110A00F009F803DA1420A0702465C7E72C
:101060000328C2DBEC20F8E7BDEEC00A10EE100A40
:1010700040B2A842704780B500F040FB00F082FB10
:1010800000F0B6FB00F01CFC4F4801680529FCD1BC
:1010900001BDE0B500208DF8040040208DF805006A
:1010A00007208DF8060000208DF80A00ADF8080032
:1010B00008208DF8070001A8FFF77AFD80208DF841
:1010C000000010208DF801000020ADF8020000A8FB
:1010D000FFF795FD07BD0000F0B52DED028B85B043
:1010E000044600F073F8062301AA28213220FFF7F6
:1010F0000AFE00AE01A8717803AD490648BF402141
:1011000004D49DF800201021520611D4002201AB16
:1011100003EB42035B7810F812701B0207FA83F3AB
:1011200093FBF1F325F81230521C032AEFDB12E097
:10113000002101AB03EB410310F811205B78120290
:1011400003FA82F2D31002EB1372121125F8112068
:10115000491C0329EDDB00F039F87078400613D400
:101160009DF8000010F0300008D0102809D0202889
:101170000AD0302808BF9FED108A07E0B7EE008A3A
:1011800004E0B6EE008A01E0B5EE008A002035F9F1
:10119000101000EE101AB8EEC00A04EB800180EEC9
:1011A000080A401C81ED000A0328F0DB05B0BDEC05
:1011B000028BF0BD0000C8429FCDAA3D0000002078
:1011C00010E000E023ED00E0B4010020022300AABB
:1011D00023213220FFF797BDFEE70000DFF8E81279
:1011E00000220A700870704710B582B0002000908D
:1011F0000024112000F04DF90099491C009100993C
:10120000B1F5A06F01D00028F3D0112000F041F912
:1012100000B10124204616BDDFF8B4120860704703
:10122000DFF8A8120A68920850EA82000860704746
:10123000DFF89802006800F00C007047F0B5DFF8A6
:101240008C12DFF890220C68002304F00C04082CA8
:1012500013D10B680C68C3F383439B1CE40303D4D2
:10126000DFF87442634306E08C6A04F00F04641CE8
:10127000B2FBF4F463431C4600E0144604600D68BE
:10128000DFF85842C5F303152D5D076827FA05FC02
:10129000C0F804C00E68C6F30226365D2CFA06F6C6
:1012A00086600E68C6F3C226365D2CFA06FCC0F8CE
:1012B0000CC0D1F828C0CCF3041C04EB4C0CBCF8D7
:1012C00010C05FEACC6E48BFB3FBFCF707618F6AC2
:1012D000C7F3442704EB4704248AE7064CBFB3FB5B
:1012E000F4F404684461CC6AE40654BF144604680C
:1012F0008461CC6AA40654BF14460468C4615C00CF
:10130000CF6AFF0505D507689F4204BFAE42274656
:1013100000D0C7680762CF6ABF0504D507689F423F
:1013200008BFAE4200D0C46844624FF40043CC6AA8
:1013300014F0030F08BFC46805D0CC6A04F003049E
:10134000012C02D1046884620CE0CC6A04F003042E
:10135000022C08BF836205D0CC6A04F00304032C7E
:1013600008BF8262CC6A14F4403F08BF846806D08C
:10137000CC6A04F44034B4F5803F02D10468C462FE
:101380000EE0CC6A04F44034B4F5003F08BFC362F9
:1013900006D0CC6A04F44034B4F5403F08BFC262C2
:1013A000CC6A14F4402F08BF846806D0CC6A04F4D9
:1013B0004024B4F5802F02D1046804630EE0CC6AA7
:1013C00004F44024B4F5002F08BF036306D0CC6AB0
:1013D00004F44024B4F5402F08BF0263CC6A14F42F
:1013E000401F08BF846806D0CC6A04F44014B4F5EA
:1013F000801F02D1046844630EE0CC6A04F44014F8
:10140000B4F5001F08BF436306D0CC6A04F440144F
:10141000B4F5401F08BF4263CC6A14F4400F08BF04
:10142000816806D0CC6A04F44004B4F5800F02D180
:1014300001688163F0BDCC6A04F44004B4F5000F88
:1014400001D18363F0BDC96A01F44001B1F5400FD9
:1014500008BF8263F0BD224908607047214A002915
:10146000116814BF084321EA0000106070471E4A4B
:101470000029116814BF084321EA0000106070477A
:101480001A4A0029116814BF084321EA00001060BD
:101490007047002142090B4B08BF1A6807D0012A88
:1014A00008BF1A6A03D0042A0CBF5A685A6A01237B
:1014B00000F01F0003FA00F0024218BF01210846A5
:1014C0007047000000100240021002400410024069
:1014D0006000424200127A0000093D0084000020B2
:1014E000D800424214100240181002401C10024062
:1014F000F0B5002201230C6893401C409C422AD185
:1015000054000325A5400E79ED43012E18BF022E8D
:1015100010D186682E40866086684F79A7403E438A
:101520008660868826EA0303838083888E799640C6
:101530003343838003682B40036003680E79A64021
:1015400033430360C3682B40C360C368CD7905FA99
:1015500004F42343C360521C102ACBD3F0BD816135
:1015600070470185704710B5CB1000EB830001F088
:1015700007018900036A0F248C40A343036202FA27
:1015800001F1036A1943016210BD000030B501F09A
:10159000030221F00301064B9200CC580F25954021
:1015A000AC43CC509040CC582043C85030BD0000D4
:1015B00008000140F0B50268012102F01F0301FAA2
:1015C00003F3DC4385795309364A002D58D012EBDA
:1015D00043131D682C401C600368334D5C0915EBF8
:1015E000441403F01F03256801FA03F325EA0303FB
:1015F000236004680379650913EB4513D31804F0DD
:101600001F041D6801FA04F42C431C600468274B76
:10161000650913EB451504F01F042E6801FA04F464
:1016200026EA04042C600568214C6E0914EB46166A
:1016300005F01F05376801FA05F527EA050535604D
:101640000568477905F01F066D096D0101FA06F678
:10165000102F0FD15A1913683343136000684209E1
:1016600014EB421200F01F00136801FA00F0184357
:101670001060F0BD55FA87F013181868304305E084
:10168000007910EB43101318186820401860F0BD63
:1016900000BF012100F01F02914040094001054AAE
:1016A0001150704700040140040401400804014047
:1016B0000C040140140401400448054A0021416023
:1016C0004FF43F411180016000207047405C0040B2
:1016D000BC01002070B500F07F060C461546304670
:1016E000FFF7DFF90146AAB22046FFF72CFAA9B2AC
:1016F0003046FFF7DEF9002070BD000000B583B072
:1017000001214FF08050FFF7BBFE01210120FFF7C0
:10171000AEFE01214FF40010FFF7A0FE01214FF4AF
:101720000030FFF79BFE4FF4C050009003208DF86F
:10173000050002208DF804000020ADF8060000A985
:101740004FF09040FFF7D4FE0E220B214FF0904057
:10175000FFF709FF0E220C214FF09040FFF703FF27
:101760001220FFF795FF4548122101600021017109
:101770000821417101218171FFF71CFF0020FFF753
:1017800087FF07BD80B50020FFF765FEBDE8044078
:1017900001214FF40000FFF773BE3A4803210160B6
:1017A0000020FFF775BF80B50120FFF717FDFFF799
:1017B0001BFD354908701120FFF76BFE0028FAD099
:1017C0000120FFF729FD1920FFF763FE0028FAD05A
:1017D0000220FFF725FDFFF72BFD0828FBD12B4941
:1017E0002848897A002914BF05210121016001BD23
:1017F00080B54FF4A06000F073F814208DF800005D
:1018000002208DF8010000208DF80200012000F078
:1018100012F82A208DF8000001208DF8010000F058
:101820000AF806208DF8000000208DF8010000A8BD
:1018300000F05BF801BD8DF8030000A800F055B87A
:101840000F4A00284FF48041104618BFFFF789BEA9
:10185000FFF785BE38B50E480168446880684018B7
:101860000BD00C4D0822A91C00F016F805F112014E
:101870002046BDE8384004220EE031BD9C01002026
:1018800000100048B4010020BE01002074010020B7
:10189000E8F7FF1FF400002030B50023002506E024
:1018A00001F8134001EB4304000165705B1C934297
:1018B00005DA040F0A2C34BF30343734F0E730BD7A
:1018C0000448054AC0610221017242620349016273
:1018D0000868004774010020B00000205400002078
:1018E0001849084318490860704770B50378C478F0
:1018F0001A460121ECB1144B0F261B68447803F4FF
:10190000E063C3F5E0631B0AC3F10405AC408578CE
:1019100026FA03F32B4023430C4C1B01135500788C
:101920000B4B421100F01F0001FA00F043F82200B7
:1019300070BD5011074A03F01F03994042F8201070
:1019400070BD00000000FA050CED00E000E400E0CE
:1019500000E100E080E100E080B5FFF77BFF644834
:1019600000210068817200F0D9F8FFF7A5FE002180
:101970006048016001BD80B55D48002201688A723F
:101980000168CA725C490068C97941720020FEF79B
:10199000FBFF4FF400710020FEF7FDFF1021002037
:1019A000FFF703F818210020FFF773F858210020F3
:1019B000FFF76EF80020FFF738F8504890F82C1029
:1019C0000020FFF77DF80020FFF723F84FF4C061F7
:1019D0000120FEF7E0FF4FF480710120FFF758F877
:1019E00004210120FFF765F800210120FEF7EEFF3A
:1019F00020210120FEF7D9FF0020FEF770FF3D48AF
:101A00000121016001BD3E48807A10B139480521AD
:101A10000160704737480421016070477047704784
:101A200080B53349062809680A7811D102F07F0091
:101A3000012804BF4879002814D18878222808BFDB
:101A40000FF271020CD021280CD10FF2710207E0C5
:101A500002F07F02212A08BF032803D10FF27D0282
:101A6000100001D1022002BD8A6100204882904707
:101A7000002002BD1E490968097801F07F01212973
:101A800003D10B2808BF00F021B8022070471D4980
:101A9000FEF7C6BC1C49FEF7C3BC15490968C978E6
:101AA000052901DB00207047184A02EBC101FEF74F
:101AB000B7BC00001649FEF7B3BC00001549FEF79D
:101AC000AFBC00290CBF002802207047084812490B
:101AD0000068C078086000207047000028B90448FA
:101AE000012100680182002070470B487047000008
:101AF00090010020B4010020381E0008540000208E
:101B0000740100204801002050010020D400002072
:101B10005801002060010020B001002080B50120A4
:101B2000FFF78EFE2E482F4A01210160002101603F
:101B300041604FF4E05111800160002002BD28484F
:101B4000016841F0080189B20160016841F00401B7
:101B500089B20160FFF721BE10B5214C4FF6FB7131
:101B6000206808402060FFF71EFE4FF43F402060D1
:101B700010BD000010B51C4C072818BF207021783C
:101B80001748052929D8DFE801F00306090D141EBE
:101B9000FFF7E2FF21E0FFF7DFFF08E002206070BF
:101BA00003201BE06078401E60706078B8B90420A4
:101BB00014E0016841F0100189B201600520207035
:101BC0000A20607010BD6178491E6170617831B97A
:101BD00001684FF6EF72114001600620207010BDC1
:101BE000405C0040BC010020B80100202DE9F84F06
:101BF0000020ADF8000040F68F7848F60F7B48F2E1
:101C00008006444F444CDFF81491DFF814A14BF6E2
:101C1000BF7525E054F82010ADF80010BDF8001095
:101C200009040BD554F8201008EA010144F82010EB
:101C30003C4901EB800050F8040C8047BDF80000DF
:101C400000060DD599F8000054F820100BEA0101A8
:101C500044F82010344901EB800050F8040C804710
:101C6000606CAAF80000000452D5BAF8000010F029
:101C70000F0089F80000CDD120683880388800F046
:101C800030007880388800F4405038802068284040
:101C900080F4005080F0200030432060BAF800004B
:101CA000C006206805D40BEA00002060FEF7BCFDEA
:101CB00016E0ADF80000BDF80000000506D520686C
:101CC00008EA00002060FEF77BFD09E0BDF8000097
:101CD0000004C5D5206808EA00002060FEF7C7FDB3
:101CE000206839882840C90448BF80F4805039886A
:101CF000890448BF80F400507988C90648BF80F045
:101D000010007988890648BF80F0200030432060A9
:101D1000BDE8F18FA8010020005C0040C001002058
:101D2000AE0100202C010020100100203648374A67
:101D3000016841F47001016082B03548016841F0EA
:101D4000010101604168114041600168314A114060
:101D500001600168304A21F480210160416821F46A
:101D6000FE014160C16A09090901C162016B1140AC
:101D700001630021816001910091016841F4A0217B
:101D80000160016801F4003100910199491C019141
:101D9000009919B90199B1F5A06FF2D10168490C08
:101DA00001F0010100910099012926D11B4912225D
:101DB0000A604168416041684160416841F4806166
:101DC0004160416821F47C114160416841F4E811AF
:101DD0004160016841F08071016001688901FCD5B2
:101DE0004168890889004160416841F00201416011
:101DF000416801F00C010829FAD14FF00061084850
:101E000002B001607047000088ED00E00CC07FF870
:101E100000100240FFFFF6FECCFC00FF0020024055
:101E200008ED00E01201000200000040830410579A
:101E3000000201020301000009022200010100E08A
:101E40003209040000010301020009210001000120
:101E5000224A000705810304002000000501090251
:101E6000A1010901A1000509190129031500250196
:101E70009503750181029501750581010501093000
:101E8000093109381581257F750895038106C00938
:101E90003C05FF09011500250175019502B1227568
:101EA000069501B101C00000040309042603530094
:101EB00054004D006900630072006F0065006C0003
:101EC00065006300740072006F006E0069006300BB
:101ED000730000001E03530054004D003300320015
:101EE00020004A006F0079007300740069006300ED
:101EF0006B00000070B5294D294C2868294E608080
:101F0000608831880840000448BFFFF76FFE608892
:101F100031880840400505D54FF6FF30286022483B
:101F200040688047308861880140890444BF4DF68D
:101F3000FF71296061880840C00405D54EF6FF7026
:101F400028600020FFF716FE6088318808400005F1
:101F50000BD51648007810B1FFF7F1FD02E0022022
:101F6000FFF708FE4FF2FF7028603088618801405B
:101F7000890505D54FF6FF5129602178491C21704C
:101F800061880840C00507D54FF6FF60286007202C
:101F9000BDE87040FFF7EEBD70BD00BF445C00407F
:101FA000AC010020BC010020540000207001002082
:101FB0007047FEE7FEE7FEE7FEE7704770477047B1
:101FC00002480178491C017070470000040000209D
:101FD000FFF790BF80B50020FFF7CCFDBDE80240C1
:101FE0001220FFF755BB000010B50749794418319E
:101FF000064C7C44163404E0081D0A6851188847D2
:102000000146A142F8D110BD0800000028000000E0
:102010007FEBFFFF50000000740100200000000073
:102020003BE9FFFF74010000BC010000000000203C
:10203000000000004EF68851CEF20001086840F41E
:10204000700008604FF00070E1EE100A7047000069
:1020500000F009F8002801D0FFF7C6FF0020FEF7C6
:10206000A5FF00F002F80120704700F001B8000061
:102070000746384600F002F8FBE70000C046C046BD
:10208000024A11001820ABBEFBE700BF2600020089
:1020900001488047014800472D1D0008AD20000879
:1020A000014801210170704705000020C046C0466C
:1020B000FFF7C0FFFFF7CCFFFFF77ABFFFF779BF4D
:1020C000FFF778BFFFF777BFFFF776BFFFF775BF62
:1020D000FFF774BFFFF773BFFFF772BFFFF7FEBFD5
:1020E000FFF7FEBFFFF7FEBFFFF7FEBFFFF7FEBF24
:1020F000FFF7FEBFFFF7FEBFFFF7FEBFFFF7FEBF14
:10210000FFF7FEBFFFF7FEBFFFF7FEBFFFF7FEBF03
:10211000FFF7FEBFFFF7FEBFFFF7FEBFFFF7FEBFF3
:10212000FFF7FEBFFFF7FEBFFFF7FEBFFFF750BF91
:10213000FFF7FEBFFFF7FEBFFFF7FEBFFFF7FEBFD3
:10214000FFF7FEBFFFF7FEBFFFF7FEBFFFF7FEBFC3
:10215000FFF7FEBFFFF7FEBFFFF7FEBFFFF7FEBFB3
:10216000FFF7FEBFFFF7FEBFFFF7FEBFFFF7FEBFA3
:10217000FFF7FEBFFFF7FEBFFFF7FEBFFFF7FEBF93
:10218000FFF7FEBFFFF726BFFFF7FEBFFFF7FEBF5B
:10219000FFF7FEBFFFF7FEBFFFF7FEBFFFF7FEBF73
:1021A000FFF7FEBFFFF7FEBFFFF7FEBFFFF7FEBF63
:1021B000FFF7FEBFFFF7FEBFFFF7FEBFFFF7FEBF53
:1021C000FFF7FEBFFFF7FEBFFFF7FEBFFFF7FEBF43
:1021D000FFF7FEBFFFF7FEBFFFF7FEBFFFF7FEBF33
:1021E000FFF7FEBF0000000000010000000000003B
:1021F00000000000000000000000000000000000DF
:1022000000000000000000000000000000000000CE
:1022100000000000000000000000000000000000BE
:1022200000000000000000000000000000000000AE
:10223000000000000000000059190008771900088C
:102240001D1A00081F1A0008211A0008751A000834
:10225000C31A00088F1A0008951A00089B1A000874
:102260000000000040000000000000000102030424
:10227000010203040607080900000100020004002F
:10228000060008000A000C0010002000400080003A
:102290000001000059090008071A00085909000840
:1022A0005909000859090008590900085909000886
:1022B00059090008151A0008A81E000804000000AB
:1022C000AC1E000826000000D41E00081E000000FE
:1022D000F40000201A0000001A03530054004D00BF
:1022E0003300320031003000000000000000000028
:1022F00000000000A1200008590900085909000841
:102300005909000859090008590900085909000825
:102310005909000859090008590900085909000815
:10232000590900085909000859090008241E000825
:1023300012000000381E0008220000005C1E000889
:102340004A0000004A1E00080900000000A000002A
:08235000020100000100000081
:04000005080020AD22
:00000001FF
