:020000040800F2
:1000000040060020A1010008DB1D00088513000840
:10001000D91D0008DB070008312F00080000000090
:10002000000000000000000000000000652600083D
:10003000A90C000800000000951F0008092D000809
:10004000BB010008BB010008BB010008BB010008A0
:10005000BB010008BB010008A1100008BB0100089B
:10006000BB010008BB010008BB010008BB01000880
:10007000BB010008BB010008BB010008BB01000870
:10008000BB010008BB010008BB010008BB01000860
:100090000D2F0008BB010008BB010008BB010008D0
:1000A000BB010008BB010008BB010008BB01000840
:1000B000BB010008BB010008BB010008BB01000830
:1000C000BB010008BB010008BB010008BB01000820
:1000D000BB010008BB010008BB010008BB01000810
:1000E000BB010008BB010008AD2D0008BB010008E2
:1000F000BB010008BB010008BB010008BB010008F0
:10010000000000000000000000000000BB0100082B
:10011000BB010008BB010008BB010008BB010008CF
:10012000BB010008BB010008BB010008BB010008BF
:10013000BB010008BB010008000000000000000037
:10014000BB010008BB010008BB0100080000000063
:10015000000000000000000000000000000000009F
:100160000000000000000000BB010008BB01000807
:10017000BB010008000000000000000000000000BB
:1001800000000000BB010008DFF810D000F0D8FA32
:10019000004800477D370008AFF30080400600208C
:1001A0000648804706480047FEE7FEE7FEE7FEE711
:1001B000FEE7FEE7FEE7FEE7FEE7FEE7292D000883
:1001C000890100082DE9FE4F804681EA0300C00F37
:1001D0000C46009021F0004123F00045B8EB0200EE
:1001E000A94105D24046214690461C460B46024690
:1001F00023F00040104347D0270DC7F30A00C3F394
:100200000A510290401A019040286BDAC3F31300A0
:1002100040F4801B0098924620B10023D2EB030AE1
:1002200063EB0B0B01985946C0F14002504600F0B9
:1002300080F906460D4650465946019A00F088F965
:1002400010EB08006141002487EA115284EAE77349
:100250001A4340D0009A62B3019A012A4FEA07522A
:1002600015DC001B61EB02014FF0004202EA07526D
:10027000CDE90042001C41F5801132462B4600F0CA
:10028000BFF903B0BDE8F08F40462146F9E7001BF7
:1002900061EB0201001C41F5801300185B4120183E
:1002A000A2F5001747EB030140EAD570B6196D417E
:1002B00011E06D084FEA360645EAC0754FEA07526D
:1002C000001B61EB0201001C41F5801149084FEA57
:1002D00030000019514132462B4603B0BDE8F04FC3
:1002E00000F07FB90098012240000023D0EB020209
:1002F00063EBE073009821464FEAE074B8EB00002E
:1003000061EB0401E9E783F000435BE781F0004122
:1003100058E72DE9FE4F81EA030404F0004421F080
:10032000004100944FF0000B23F0004350EA010419
:100330005ED052EA03045BD0C3F30A54C1F30A55FA
:100340002C44A4F2F3340194A0FB0254C1F3130132
:1003500041F48011C3F3130343F4801301FB0244FF
:1003600000FB034E840A970A44EA815447EA835704
:10037000A4FB076802958D0A05FB07854FEA932CBD
:1003800004FB0C542705029D4FEA065847EA16372E
:10039000B5EB08056EEB070C870E920E47EA811746
:1003A00042EA8312A7FB0201B6EB0B0164EB0004E7
:1003B0002B0D43EA0C335E1844EB1C50DA465146D1
:1003C000E7FB0201C5F313044FEA0B3343EA14536E
:1003D0004FEA0432019C43EA0603A4F10C040294A0
:1003E000009CCDE900B400F00BF903B0BDE8F08F3C
:1003F00000200146F9E72DE9F04D81EA030404F0FD
:10040000004B21F0004514464FF0000A23F0004154
:1004100050EA050220D054EA01021DD0C5F30A5764
:100420000246C5F31303C1F31300C1F30A5640F4A7
:10043000801543F48013A7EB0608101BD64608F27C
:10044000FD3873EB050002D308F1010801E09218B2
:100450005B41B8F1000F03DA00200146BDE8F08DE2
:1004600000204FF48011064684460EE0171B73EB04
:10047000050705D3121B63EB050306434CEA010C89
:1004800049084FEA300092185B4150EA0107EDD16C
:1004900052EA030012D082EA040083EA050108430D
:1004A00005D0101BAB4106D20122002306E000223A
:1004B0004FF0004302E06FF0010253101AEB060008
:1004C0004CEB085110EB0A0041EB0B01BDE8F04D7D
:1004D00000F087B800F0004230F000400AD0C10DB3
:1004E00001F56071C0F3160042EA0151C2084007ED
:1004F0001143704700200146704701F0004330B4BB
:1005000021F0004150EA010206D00A0DA2F5607206
:10051000C1F31301002A02DC30BC00207047440FF5
:1005200044EAC104C100E01830BC00EBC25000F046
:1005300021B8202A04DB203A00FA02F1002070479B
:100540009140C2F1200320FA03F319439040704711
:10055000202A06DBCB17203A41FA02F043EAE07387
:1005600006E041FA02F3D040C2F120029140084374
:10057000194670470029A8BF7047401C490008BFB2
:1005800020F00100704710B4B0FA80FC00FA0CF0C3
:1005900050EA010404BF10BC704749B1CCF12004FB
:1005A00021FA04F411FA0CF118BF01212143084388
:1005B000A3EB0C01CB1D4FEA00614FEA102042BFB4
:1005C000002010BC704700EBC35010440029A4BFAA
:1005D00010BC7047401C490008BF20F0010010BC4F
:1005E000704710B5141E73F1000408DA401C41F185
:1005F000000192185B411A4301D120F0010010BDA7
:100600002DE9F04D92469B4611B1B1FA81F202E01C
:10061000B0FA80F220329046FFF78BFF04460F4677
:1006200040EA0A0041EA0B0153465A46084313D0F8
:10063000114653EA010019D0C8F14002504600F0BB
:1006400091F805460E46504659464246FFF771FF5F
:10065000084305D0012004E020463946BDE8F08D6E
:100660000020054346EAE0762C4337430A986305A9
:10067000E40AA0EB08000022FD0A44EA47540A30CD
:1006800002D500200146E9E7010510196941DDE9BD
:10069000084500196941BDE8F04DA2E72DE9F04D8C
:1006A00000231A461B1A8A4103DB00200146BDE8DD
:1006B000F08DC1F30A52C1F3130141F480154FF0DC
:1006C000000BD10702D100186D41521E00270446CD
:1006D00040F2FF11384601EB620A3E468046024670
:1006E00000204FF4801100F03DF8C2197141BB1891
:1006F00046EB0100B4EB030C75EB000C04D3E41AD9
:1007000065EB000517460E46241908F101006D41FE
:1007100080463428E3DDF91946EB0600091BA841A1
:1007200003D24FF0FF32134601E0002213461BEBC9
:10073000070046EB0A51BDE8F04DFFF752BF00003D
:10074000064C074D06E0E06840F0010394E807001E
:1007500098471034AC42F6D3FFF71AFD98410008D1
:10076000B8410008202A04DB203A21FA02F00021D7
:10077000704721FA02F3D040C2F1200291400843B1
:100780001946704770B58C1810F8015B15F0070317
:1007900001D110F8013B2A1106D110F8012B03E01A
:1007A00010F8016B01F8016B5B1EF9D12B0705D422
:1007B0000023521E0DD401F8013BFAE710F8013B6B
:1007C000CB1A921C03E013F8015B01F8015B521E87
:1007D000F9D5A142D8D3002070BDFEE7C1B2000A0E
:1007E00040EA0120704700002DE9F84F0020ADF8E5
:1007F0000000DFF834A14BF6BF7648F280074A4D7F
:100800004A4C40F68F7848F60F7BDFF824910AF1C6
:10081000440A31E00888474A10F00F00107034D0C5
:10082000454901EB8001D1F8002CADF80020BDF85E
:10083000002012040BD5D1F8002C02EA0802C1F8FE
:10084000002C3E4901EB800050F8040C8047BDF8B5
:100850000000000610D537483749007801EB8001C9
:10086000D1F8002C02EA0B02C1F8002C344901EB4C
:10087000800050F8040C8047DAF800004946A9F8D7
:1008800000000004C6D4BDE8F88F286820802088C6
:1008900000F030006080208800F4405020802868FC
:1008A000304080F4005080F02000384328600888F1
:1008B000C006286815D400EA0B00286000F0BCFDD3
:1008C00026E02188890401D580F400506188C9069A
:1008D00026D46188890601D580F02000384328603D
:1008E000D1E7ADF80000BDF80000000506D5286886
:1008F00000EA0800286002F02FF809E0BDF80000C7
:100900000004B9D5286800EA0800286001F00EFB51
:10091000286821883040C904D3D580F48050D0E7BE
:1009200080F01000D5E70000005C004016000020B9
:10093000E0000020040000200050004000010020E2
:10094000E4000020810008480844D0F8001C490455
:1009500009D5D0F8001C48F68F7211404CF2800285
:100960001143C0F8001C7047005000408100084847
:100970000844D0F8001C490609D5D0F8001C48F6F8
:100980008F72114048F2C0021143C0F8001C70473A
:1009900000500040810006480144D1F8000C48F6A0
:1009A0008F62104048F280021043C1F8000C70477B
:1009B000005000402DE9F047DFF89480254F4FF0BC
:1009C0003009D8F8001001F11005088A0E7A08B92C
:1009D000042E04D0AC88A04215D8042614E01E488A
:1009E0000178012903D00726102038802BE01B4A0C
:1009F000002112681A4B120403EBD2325160A7F89F
:100A0000009001701FE00226844200D90446A968C4
:100A1000204688478246002000F08CFC0146224692
:100A2000504602F087FA2146002001F0C7FE2888D0
:100A3000001B2880688820446880A7F80090094936
:100A40004FF440500880D8F800000672BDE8F087E7
:100A5000080000201800002000000020505C00402A
:100A600000600040160000202DE9F047224EDFF81C
:100A70008C803027356835F8100FA968A9B100B30C
:100A8000AC88844200D9044620468847814628889D
:100A9000001B2880688820446880002000F03AFC11
:100AA00001462246484601F065FA288848B11449B3
:100AB0004FF4405008800021084601F07FFEA8F85E
:100AC00000702888A988884201D3032001E020B162
:100AD000052031680872BDE8F08731680620087289
:100AE000084900200968084A090402EBD13148602E
:100AF000A8F80070EFE700000800002018000020B0
:100B000016000020505C004000600040F8B55D4CCD
:100B10005D4D09262068002729684278062A05D0FD
:100B2000AAB1082A4DD00A2A50D06BE002785206AA
:100B300068D18078012804D0022804D0032804D08A
:100B400060E0C96956E0096A54E0496A52E04288A7
:100B5000B2BBC288022A55D102798ABB02785306F9
:100B600001D1838833B102F07F02012A04D0022A26
:100B70000CD047E045493DE08A6940790021904723
:100B8000F0B92068807A0028F4D13BE0417901F087
:100B90000F0001F070020B063D4901EB8001D1F816
:100BA000001C03D5C1F30111090102E0C1F30131B9
:100BB0000903384B1B78834224D90AB90029D9D1BB
:100BC00020E0007840061DD1334913E0027802F09E
:100BD0007F02012A16D1827AA2B1428892B90279A3
:100BE00082B9C288012A0DD18A69407900219047D3
:100BF00040B92A4931B12068478281610020884785
:100C0000002006E0296820680969407888470328A1
:100C100013D021680A8AA2F57F43FF3B0BD002283C
:100C20000ED06AB10878000626D5C88800908242A6
:100C30000AD9088218E00E72F8BD20680672F8BD65
:100C40004FF008000872F8BD0ED22868144B90F8D7
:100C50002C00824201D21F7006E0B2FBF0F400FBD0
:100C6000142008B901201870286890F82C00888298
:100C7000BDE8F840FFF79EBE032008720949000353
:100C80000880F8BD080000200C000020292B000877
:100C9000005000401C010020BD2A0008012B000864
:100CA00000000020160000207047000001B5034836
:100CB0000099416041680029FCD108BD80000020F6
:100CC0001FB500248DF8084014208DF80900E0209D
:100CD0008DF80B008DF80A4002A800F033FF8DF864
:100CE000004040208DF8010007208DF802008DF8AB
:100CF000064008208DF804408DF803008DF805406B
:100D0000684600F06DFE80208DF80C0010208DF8F4
:100D10000D008DF80E408DF80F4003A800F042FE44
:100D20001FBD000070B506462DED028B86B0002475
:100D3000B7EE008A02236A462321322000F032FFF8
:100D4000062301AA2821322000F02CFF9DF8012063
:100D5000500601D5402100E010219DF8000003ADB0
:100D6000430601A801D5520610D500EB440310F844
:100D700014205B781B0202FA83F292FBF1F225F851
:100D80001420641CE4B2032CEFD30FE000EB440208
:100D900010F8143052781B0202FA83F292FBF1F23F
:100DA00025F81420641CE4B2032CEFD302236A4616
:100DB0002321322000F0F6FE9DF80100B5EE000A76
:100DC00040060ED49DF8000010F030000ED0102820
:100DD00004D0202805D0302808D105E0B6EE008ADE
:100DE00004E0B0EE408A01E09FED0B8A5FF0000165
:100DF00035F9110000EE100A06EB8100491CB8EE2F
:100E0000C00AC9B20329C0EE080AC0ED000AEFD338
:100E100006B0BDEC028B70BD9FCDAA3D2DE9F84315
:100E2000804600208DF80000044607460646012350
:100E30006A4619463C2000F0B5FE0123454A0321CD
:100E40003C2000F0AFFE434D01236A1C04213C20EE
:100E500000F0A8FE0123AA1C07213C2000F0A2FEFE
:100E60000123EA1C08213C2000F09CFE01232A1DDE
:100E700005213C2000F096FE01236A1D06213C203E
:100E800000F090FE9DF8000000F0E0014FF4C87003
:100E900080291DD006DC20290BD040290ED06029E6
:100EA00025D110E0A02917D0C02919D0E0291ED1E2
:100EB0001BE040F24C444FF4757718E040F2573491
:100EC0004FF43E7713E040F29E244FF416770EE085
:100ED0004FF4E17407460AE0044640F2631706E067
:100EE0004FF4A57440F2271701E0E624CD2705EB67
:100EF000460015F81610407800EB01204FF47A7187
:100F000010FB01F000EE100A08EB8600761CF8EEEC
:100F1000C00A00EE104AF6B2022EB8EE400A80EE89
:100F2000801A80ED001AE2D36879297900EB01205C
:100F30004FF47A7110FB01F000EE100AF8EEC00ACF
:100F400000EE107AB8EE400A80EE801A88ED021AA0
:100F5000BDE8F883B80000203EB5082000248DF8D5
:100F600000008DF8014007208DF8020030208DF838
:100F700003008DF804408DF8054010208DF8060020
:100F8000684600F0CAFB8DF808408DF8094002A8B9
:100F900000F0AAFB102000F093FB3EBD70B50546A3
:100FA0002DED028B86B000200090019002900390FE
:100FB0008DF8100004469FED288A0122232104A801
:100FC00000F074FC06222821684600F06FFC9DF8B2
:100FD000101068464B0602AA0DD400BF00EB440671
:100FE00010F81430767803EB062322F81430641CD2
:100FF000032CF3DB0BE000EB440310F814605B7888
:1010000003EB062322F81430641C032CF3DB11F0ED
:10101000300004D0102805D0202808D105E09FED2D
:101020000F8A04E09FED0E8A01E09FED0E8A0021F9
:1010300032F9110000EE100A05EB8100491CB8EEF0
:10104000C00A0329C0EE080AC0ED000AF0DB06B0B2
:10105000BDEC028B70BD000000000000EC91E4428A
:10106000549264425C8F644110B501F025FC01F09C
:1010700069FC01F0C5FE01F0AFFE044904480A68AE
:10108000052A02D00269002AF9D110BDB80100205A
:10109000800000200149012008707047BE00002038
:1010A00070B5002000F042F8012829D1002001F09D
:1010B00081FA002824D0134C00262660124D02E04D
:1010C0002068401C20602068A842F9D3002001F06D
:1010D00071FA0028FAD1266002E02068401C2060E6
:1010E0002068A842F9D309480168491C01600168D9
:1010F000022900D90660BDE87040002000F008B861
:1011000070BD0000C0000020FFFF07008800002025
:1011100000F01F0201219140034A20F01F001044FB
:10112000C0F81414704700000000014001460A4A4C
:1011300021F01F0310B51A440020D2F8003401F04A
:101140001F040121A140D2F814240B400A4202D00E
:10115000002B00D0012010BD00000140F0B5026856
:10116000867902F01F040121384B01FA04F422F0C1
:101170001F05002E63D0364A1544D5F80064A643F7
:10118000C5F80064056825F01F041444D4F804640D
:1011900005F01F0501FA05F5AE43C4F804640568BF
:1011A000047925F01F061E443444266805F01F0507
:1011B00001FA05F52E432660056825F01F04144446
:1011C000D4F8086405F01F0501FA05F5AE43C4F82C
:1011D0000864046824F01F051544D5F80C6404F075
:1011E0001F0701FA07F4A643C5F80C644479102CD4
:1011F0000BD0026822F01F0018442044036802F05C
:101200001F0291400B430360F0BD046824F01F03EC
:101210001344D3F8085404F01F0401FA04F42543DE
:10122000C3F80854036823F01F001044D0F80C24BE
:1012300003F01F0399400A43C0F80C24F0BD007965
:10124000E91808440168A1430160F0BD00040140B1
:10125000000001400249032008600020FFF758BF4A
:10126000B8010020F0B50022012503240E6805FA1C
:1012700002F31E409E422DD10E79012E01D0022E86
:1012800013D18768560004FA06FC27EA0C0787602A
:101290004F79B74086683743876086889E4386804B
:1012A00086888B7993401E4386800768560004FA2F
:1012B00006F39F4307600F79D0F800C0B74047EAB4
:1012C0000C070760C7689F43C760CB79B340C66807
:1012D0003343C360521C102AC8D3F0BD4B07DB0E4A
:1012E0009A40C90810B500EB8100016A0F249C40A8
:1012F000A1430162016A1143016210BD0246002050
:10130000128A0A4200D0012070470185704781612E
:10131000704700000549096889B201EBC000044923
:1013200001EB4000008980B270470000505C004033
:10133000006000400449096889B201EBC00003491C
:1013400031F8100080B27047505C004000600040EF
:101350000A4810B50168001D0468001D00680818DF
:101360000BD00822064900F095F8054920460422D2
:10137000BDE81040103100F08DB810BDE8F7FF1F38
:10138000C6000020FEE7C16170470029016802D055
:1013900041F0010101E021F00101016070470246C6
:1013A000002092690A4200D00120704710B50268FF
:1013B00022F0010202600268124B1A40D1E90134A6
:1013C00042EA0422134303600A6822F07062026159
:1013D000026842F00102026000228260C2600B6972
:1013E0008A691A438260826842F400428260CA6855
:1013F0000368134303604268034B49691A40114371
:10140000416010BDFFE0CF00FF7FFF07406AC0B220
:10141000704781627047000070B54468049DC1F355
:101420000901044E41EA0241194334402943214352
:10143000416070BD009800FC10B5134C2068017A23
:10144000022904D0042902D0062905D015E0FFF7AF
:10145000B1FA2068007A11E04178052909D10178B4
:10146000490606D1C07801F01BF908480068006AF7
:101470008047074800688068804708202168087214
:10148000BDE8104000F088BD0800002010000020DA
:101490000C000020F0B500230A24302537261F4613
:1014A00011E000BFB4EB107F02D905EB107C01E026
:1014B00006EB107C01F813C001EB430C00015B1C30
:1014C0008CF80170DBB29342ECD3F0BD124910B539
:1014D0000A680628117801F07F0103D1012901D1A2
:1014E000537913B121290AD013E09078222802D031
:1014F000212802D00DE0094904E0094902E003284F
:1015000007D1084929B10020916150828847002005
:1015100010BD022010BD0000080000206915000861
:10152000411500084D150008014901F0DBBA000023
:101530002C010020014901F0D5BA0000240100204F
:10154000014901F0CFBA00003C01002008B1044875
:101550007047044901200968088200207047000094
:101560002001002008000020014901F0BBBA000062
:101570003401002005490968C978042901D90020EF
:101580007047034A02EBC10101F0ACBA0800002029
:101590007401002009B9002800D002207047000023
:1015A00006490968097801F07F01212901D10B283A
:1015B00001D00220704700F063B80000080000204E
:1015C000224810B5006800218172C1722049C97992
:1015D0004172002001F05CF84FF40071002001F02E
:1015E00013F91021002001F0F7F81821002001F074
:1015F0007BF85821002001F0D1F80020FFF7CAF94C
:10160000144890F82C10002001F07EF8002001F022
:10161000B3F84FF4C061012001F0F6F84FF4807187
:10162000012001F0BBF80421012001F0C7F80021DE
:10163000012001F089F82021012001F0CDF80020DF
:1016400001F02EF804490120086010BD08000020B8
:101650008E40000844010020B80100200348807A31
:10166000002802D00249052008607047C40100200C
:10167000B80100200149042008607047B80100202B
:10168000034804490068C0780860002070470000E3
:1016900008000020200100207047704710B5FFF7B8
:1016A00057FE054800240068847200F097FC01F0A2
:1016B0002FFC0248046010BD08000020B801002083
:1016C00038B5044601222421684600F0EFF89DF861
:1016D0000000012200F0EF0020438DF800002421DB
:1016E000684600F03DF938BD38B504460122212195
:1016F000684600F0DBF89DF8000000F0C0018DF8AE
:10170000001020786278104308438DF80000012211
:101710002121684600F024F938BD1CB5044600209C
:101720008DF800008DF8040000F022F82078617830
:10173000E2780843A178114308439DF800109DF812
:10174000042008438DF80000207961790843A179CD
:10175000114308438DF8040001222021684600F05F
:10176000FFF80122232101A800F0FAF81CBD0000B7
:101770002DE9F04101210F0388B0384600F068FCE4
:101780000121480400F040FC01214C05204600F0F6
:101790003BFC0121204600F037FC0121204600F0EF
:1017A00033FC05224FF0904811464046FFF796FD66
:1017B000052206214046FFF791FD052207214046FC
:1017C000FFF78CFD02268DF8046000248DF806409A
:1017D00020208DF80740032500908DF805506946BC
:1017E0004046FFF73FFD8020009069464046FFF7E6
:1017F00039FD4020009069464046FFF733FDDFF891
:10180000A480404600F012FE4FF4E060ADF80C00FA
:10181000ADF810403002ADF812001020ADF8140001
:101820000720ADF81800ADF808404FF48270ADF80D
:101830000A00ADF80E40ADF8164002A9404600F08F
:1018400026FE3946404600F061FE0121404600F088
:10185000E3FD012708208DF80470DFF84C8000902C
:101860008DF806408DF8055069464046FFF7FAFCB2
:1018700008214046FFF74BFD8DF804408DF80640E7
:101880008DF8055000978DF8074069464046FFF7F0
:10189000E9FC694640460096FFF7E4FC08B0BDE865
:1018A000F081000000300140001000482DE9F041B7
:1018B00014460546012A02D941F0C00601E041F074
:1018C00080060C4F08213846FFF71FFD304600F018
:1018D00013F806E0002000F00FF8641E05F8010B75
:1018E000A4B2002CF6D13846BDE8F0410821FFF73C
:1018F0000EBD0000001000482DE9F041154C4FF4DA
:10190000805607462660144D03E02068411E216082
:101910000FD30221284600F0B3FD0028F5D0394648
:10192000284600F0FBFD266008E02168481E206084
:1019300004D200F013F8C0B2BDE8F08101212846BE
:1019400000F09EFD0028F0D02846BDE8F04100F0F0
:10195000DBBD000040000020003001400020704747
:101960002DE9F041144605460E46012A01D941F001
:1019700040060B4F08213846FFF7C7FC3046FFF7FB
:10198000BBFF05E02878FFF7B7FF641EA4B26D1C0B
:10199000002CF7D13846BDE8F0410821FFF7B7BC6D
:1019A0000010004838B5044601236A462121322040
:1019B00000F0F8F89DF8000000F00C008DF8000031
:1019C00021786278E3781143A2781A4311430143E6
:1019D0008DF800106A462121322000F061F938BDEF
:1019E0001CB5044600208DF800008DF8040000F0BE
:1019F00021F8207861789DF800200843A1781143F0
:101A000008438DF8000020796179E2780843A179D4
:101A1000114308439DF804106A4608438DF80400FA
:101A20002021322000F03CF901AA2321322000F0CD
:101A300037F91CBDF0B501214C058BB0204600F0F4
:101A4000EFFA0121880400F0DFFA0121204600F0BE
:101A5000DBFA0121204600F0D7FA0121204600F0F0
:101A6000D3FA344F042206213846FFF737FC04220C
:101A700007213846FFF732FC02258DF80450002478
:101A80008DF8064040208DF80750032600908DF811
:101A9000056069463846FFF7E5FB802000906946FF
:101AA0003846FFF7DFFB8DF804408DF80640042030
:101AB000214F8DF8074000908DF805606946384643
:101AC000FFF7D0FB0221042000F0CEFD8DF8284066
:101AD00008208DF8290001208DF82A00099509A811
:101AE000FFF73CFB07941548154D039402900594AD
:101AF0000494069402A908942846FFF757FC012194
:101B00002846FFF742FC8DF8044010208DF806406F
:101B100000908DF805608DF8074069463846FFF75C
:101B2000A1FB2020009069463846FFF79BFB0BB0D5
:101B3000F0BD00000004004800100048252090007F
:101B4000005400403EB5044600208DF800008DF89A
:101B500004008DF80800FFF76DFF207861786A4671
:101B600008439DF8001008438DF80000E0789DF8C8
:101B7000041008438DF80400A0789DF8081008436D
:101B80008DF8080000213C2000F08AF801AA01210C
:101B90003C2000F085F802AA02213C2000F080F8E9
:101BA0003EBD00002DE9F84F3A4C4FF420451E464B
:101BB00090460F46834625604FF4004ADFF8D890E0
:101BC00003E02068411E216053D351464846FFF789
:101BD000E6FB0028F5D14FF40050009000230122CD
:101BE00059464846FFF718FC256003E02068411E6F
:101BF00021603ED302214846FFF7D1FB0028F5D0F3
:101C0000012E01D947F0800739464F464846FFF775
:101C100000FC256003E02068411E216029D340219B
:101C20003846FFF7BCFB0028F5D04FF41050009069
:101C3000F2B24FF0007359463846FFF7EDFB10E063
:101C40002068411E216014D304213846FFF7A7FB0A
:101C50000028F5D03846FFF7D9FB761E08F8010BAF
:101C6000B6B22560002EEFD108E02168481E206042
:101C700004D200F013F880B2BDE8F88F2021384676
:101C8000FFF78DFB0028F0D020213846FFF77BFBC3
:101C90000020F1E74400002000540040002070477D
:101CA0002DE9F84F344C4FF4204617468A468146BA
:101CB00026604FF40048314D03E02068411E21604A
:101CC00049D341462846FFF76AFB0028F5D14FF477
:101CD0000050C3020090012249462846FFF79CFBB2
:101CE000266003E02068411E216034D3022128468B
:101CF000FFF755FB0028F5D051462846FFF789FB32
:101D0000266003E02068411E216024D380212846FC
:101D1000FFF745FB0028F5D0002000904FF000733E
:101D2000012249462846FFF777FB266003E020683A
:101D3000411E21600FD302212846FFF730FB002807
:101D4000F5D039782846FFF764FB266008E0216863
:101D5000481E206004D2FFF7A1FF80B2BDE8F88FD3
:101D600020212846FFF71BFB0028F0D02021284621
:101D7000FFF709FB0020F1E7440000200054004079
:101D800010B5124C012000F0C5FA00F0E1FA10493C
:101D90000870112000F09CFA0028FAD0012000F011
:101DA000C1FA192000F094FA0028FAD0022000F0BD
:101DB000BFFA00BF00F0A6FA0828FBD1A17A0548B7
:101DC00009B1052100E00121016010BDC40100201E
:101DD00074000020B8010020FEE770477047000043
:101DE00070B50F23C47801780122F4B1144C246833
:101DF000457804F4E064C4F5E064240AC4F1040600
:101E0000E3408478B5401C402C4301F1E0212301DC
:101E100081F80034007800F01F018A4040098000FA
:101E200000F1E020C0F8002170BD01F01F008240E9
:101E30004809800000F1E020C0F8802170BD00005A
:101E40000CED00E0024908430249086070470000B9
:101E50000000FA050CED00E070B52F4D2868017800
:101E600044784A0606D001F07F00012828D00228D5
:101E70002BD035E0092C06D0052C07D0032C0ED032
:101E8000012C14D02CE000F099FE28E0C1787F29C5
:101E90002ED8817861BB818851BB807A27E0C178D8
:101EA00001291DD18088D8B900F0A4FE17E0C178BF
:101EB000012915D1818899B9407A80060AD40FE0AA
:101EC0000B2C0DD100F0ECFE09E0012C02D0032C0C
:101ED00003D005E000F074FD01E000F09DFE58B174
:101EE0000E492046096849698847032802D018B17D
:101EF00008200DE009200BE0094A062000211268A5
:101F0000084B120403EBD2325160074A3021118092
:101F10002968087270BD0000080000200C00002035
:101F2000505C0040006000401800002010B50F4CCD
:101F30002068007A022811D004280FD0032804D08A
:101F4000052802D0072805D008E0FEF78DFD20689F
:101F5000007A04E006480068C068804708202168CD
:101F60000872BDE8104000F017B80000080000201B
:101F70000C000020064B521C520803EB410105D017
:101F800031F8043B20F8023B521EF9D170470000A3
:101F900000600040704700000C4810B590F82C100D
:101FA000002000F0B1FB0A480068007A082802D03F
:101FB000092809D006E007494FF4805008800649F7
:101FC00010200880002010BD012010BD4401002019
:101FD00008000020160000201800002010B5012085
:101FE00000F0EEFE0648012101600021054A016073
:101FF000031D19604FF4E05111800160002010BDF5
:10200000405C004014000020044A0029516901D0BE
:10201000014300E08143516170470000001002401D
:10202000044A0029D16901D0014300E08143D16114
:102030007047000000100240044A0029116901D0D5
:10204000014300E08143116170470000001002402D
:10205000044A0029916901D0014300E08143916164
:102060007047000000100240044A0029D16801D0E6
:10207000014300E08143D16070470000001002403E
:102080002DE9F04F8E4900224B688E4C13F00C0363
:1020900003D0042B01D0082B01D0046012E04A6861
:1020A0004B6802F470124FF0020513F4803F05EB09
:1020B000924239D0CB6A03F00F035B1CB4FBF3F3FD
:1020C0005A4302608A46884649680F23DFF8F89130
:1020D00003EA111119F80170016821FA07F343604E
:1020E000D8F80450072606EA152519F8055023FAF2
:1020F00005F58560D8F804C006EADC2619F8066004
:10210000F340C360D8F82C809C464FF01F0B0BEABD
:10211000181309F1100E3EF813305FEAC36806D5B4
:10212000B2FBF3F3036103E0684B5A43C9E7016173
:10213000DAF82C80D1460BEA58233EF813305FEAD8
:10214000C36803D5B2FBF3F3436100E04161D9F802
:1021500030804B465FEAC86801D4846100E0816149
:10216000D3F830805FEA886801D4C46100E0C161BF
:10217000D3F830805FEAC85808D5914206D1BE42F4
:1021800004D14FEA4208C0F8208001E0C0F820C026
:10219000D3F830805FEA885806D5914204D1BE4218
:1021A00002D15200426201E0C0F824C01A6B9607C7
:1021B0004FF400420ED01E6B06F00306012E0CD029
:1021C0001E6B06F00306022E09D01E6BF643B607FF
:1021D00007D007E0C0F828C004E0816202E0826214
:1021E00000E084621E6B16F4403F0FD01E6BC6F3F6
:1021F0000146012E0CD01E6BC6F30146022E09D0FB
:102200001E6BC6F30146032E06D006E0C56204E04D
:10221000C16202E0C26200E0C4621E6B16F4402F8D
:102220000FD01E6BC6F38146012E0CD01E6BC6F379
:102230008146022E09D01E6BC6F38146032E06D0BE
:1022400006E0056304E0016302E0026300E004636A
:102250001E6B16F4401F0FD01E6BC6F30156012EE5
:102260000CD01E6BC6F30156022E09D01E6BC6F3AE
:102270000156032E06D006E0456304E0416302E008
:10228000426300E044631E6B16F4400F11D01D6BD7
:10229000C5F38155012D0ED0196BC1F3815102296F
:1022A0000BD0196BC1F38151032900D18463BDE8C0
:1022B000F08F8563FBE78163F9E78263F7E700004E
:1022C0000010024000127A004800002000093D0082
:1022D000034600200A4A59090CD001290CD00429D0
:1022E0000CD0516A03F01F02012393400B4200D02F
:1022F000012070471168F5E7116AF3E75168F1E7CB
:10230000001002400248406800F00C0070470000D6
:1023100000100240024900228A7088707047000055
:102320000010024001490866704700000000424268
:10233000034A516821F003010143516070470000D6
:10234000001002400149C1F8D80070470000424225
:1023500018B500204FF4A06400901120FFF7B8FFDB
:102360000099491C0091A14201D00028F5D011200C
:10237000FFF7AEFF002800D0012018BD70B51C4C3F
:10238000072800D020702178062604251948062940
:102390002CD2DFE801F00306090E162000F02CF81D
:1023A00024E000F029F80AE0022060700320207089
:1023B00070BD6078401E607060780028F8D125708C
:1023C00070BD016889B241F01001016005202070E4
:1023D0000A20607070BD6178491E617061780029C3
:1023E000F8D1016889B221F010010160267070BD3A
:1023F000BD010020405C004010B5064C206880B252
:1024000020F004002060FFF7BBFC4FF43F40206049
:1024100010BD0000405C00400029018802D041F05E
:10242000400101E021F0400101807047114910B5E1
:1024300088420AD1841401212046FFF715FE204668
:10244000BDE810400021FFF70FBE0B49884202D1C2
:102450000121041404E0094988420AD10121C4136E
:102460002046FFF7E9FD2046BDE810400021FFF7B8
:10247000E3BD10BD0030014000380040003C00408A
:102480000246002012890A4200D00120704730B570
:102490004A88B2F5827F1ED0828822F470638A88CF
:1024A0001A43828002880C8902F44153CA888D89BC
:1024B00022434C892C43CD892C4322430C884D88E0
:1024C0002C4322431A430280828B22F400628283CF
:1024D000098A018230BD02880C8902F44153CA88FE
:1024E0008D8922434C892C43CD892C4322430C886F
:1024F00044F4827422431A430280828822F4706377
:102500008A881A438280DFE7007B7047828822F442
:102510008052828082880A438280704701737047AC
:102520001CB504460E48012150F82400FFF76CFD4D
:102530000B480021103830F81400009001208DF86D
:1025400004008DF806108DF8070003208DF80500B3
:102550000448694650F82400FEF784FE1CBD0000C4
:102560005C400008200000200349044A31F81010A4
:1025700052F82000018570474C40000820000020E0
:102580000349044A31F8101052F820008161704765
:102590004C40000820000020044951F820108A8A8D
:1025A000034B33F8100042408A827047200000201D
:1025B0004C4000080349044A31F8101052F820003A
:1025C000FEF79CBE444000081C00002070B5044685
:1025D00022480E4686B050F824000121FFF714FD72
:1025E00001210846FFF734FD1C4800258DF81050E6
:1025F000001F8DF8135030F814000390184803A9F9
:1026000050F82400FEF72EFE012E25D11348C01FDE
:10261000015D401E005D00F027F81048801E30F874
:10262000140000908DF8045008208DF80500012555
:102630008DF806506846FEF791FD0848801F005D42
:102640008DF808000F208DF809008DF80A008DF82C
:102650000B5002A8FFF7C4FB06B070BD484000084D
:102660001C0000207047000010B58A0721F0030409
:102670000649130F21440F228C689A4094438C60C2
:102680008A68984002438A6010BD00000000014043
:10269000024920F00700086070470000505C0040CD
:1026A000F0B50E490E4D48F68F770B78002148F2B1
:1026B000800C0BE0CEB205EB8604D4F8002C3A4037
:1026C000324342EA0C02C4F8002C491C9942F1D36F
:1026D000044940F080000860F0BD00001C010020AB
:1026E000005000404C5C0040054A21F00101126896
:1026F00092B202EBC000034A02EB400081607047D7
:10270000505C0040006000400D4A12683E2992B2C1
:1027100002EBC0000B4A02EB400209D94809C90686
:1027200001D1401E80B24FF4004141EA802004E014
:102730004808C90700D0401C8002106070470000A4
:10274000505C00400C60004082000A480244D2F80D
:10275000000C4BF68F731840CB0401D580F48050E9
:10276000890401D580F4005048F280010843C2F882
:10277000000C704700500040810007480144D1F828
:10278000000C4BF68F72104080F4405048F28002EB
:102790001043C1F8000C704700500040054A21F07A
:1027A0000101126892B202EBC000034A42F8101015
:1027B00070470000505C004000600040044A12680E
:1027C00092B202EBC000034A02EB40004160704746
:1027D000505C00400060004082000A480244D2F889
:1027E000000C48F6BF731840CB0601D580F01000EE
:1027F000890601D580F0200048F280010843C2F824
:10280000000C704700500040820005480244D2F896
:10281000000C48F68F1318400843C2F8000C7047AC
:10282000005000400CB50021214801910091026840
:1028300042F4A02202604FF4A063026802F4003266
:102840000092019A521C0192009A12B9019A9A427E
:10285000F3D10268920329D50121164A0091122171
:1028600011604168416041684160416841F48061A4
:102870004160416821F47C114160416841F4E811F4
:102880004160016841F08071016001688901FCD5F7
:10289000416821F003014160416841F0020141605B
:1028A0004168C1F381010229FAD10CBD00910CBD30
:1028B00000100240002002407CB501210807FFF70C
:1028C000AFFB01210846FFF7C3FB01214805FFF7D5
:1028D0009BFB01214804FFF797FB4FF4C050009089
:1028E00003208DF8050002208DF8040000248DF8E7
:1028F00006404FF090458DF8074069462846FEF7A0
:10290000B1FC0E220B212846FEF7E8FC0E220C211A
:102910002846FEF7E3FC01210020FFF757FE1220B6
:10292000FEF7F6FB0648122101600471082141718F
:1029300001218171FEF712FC0020FEF7E9FB7CBD4E
:102940007800002010B50020FFF7FCFC0121BDE855
:102950001040C805FFF764BB70B516480068174DF6
:102960000004C10B14480144098989B200EB4104F9
:102970002868017A09290FD02178017061784170A7
:10298000A088FDF72BFF296848802089FDF726FFE6
:1029900029688880A089C880286801210172C088C0
:1029A00028B1FEF7B3F8BDE87040FFF7F5BAFFF7BE
:1029B00053FAF8E7505C0040006000400800002037
:1029C0002DE9F04138480068017811F07F0102D00C
:1029D000022905D066E0417A01F0DF0141724EE044
:1029E000418800295ED10179F1BB4179304D21F058
:1029F00080040A0605EB84022C4BD2F8002C03D588
:102A0000C2F30112120102E0C2F3013212031E7876
:102A10002346A64246D93AB3807A28B308064FEA3D
:102A200084000ED52844D0F8000CC0F30110012812
:102A300021D11846FDF79AFF20463021FFF7CCFE42
:102A400019E04619D6F8000CC0F30130012812D164
:102A50004BF68F7748F28008A4B11846FDF772FF55
:102A6000D6F8000C384000E01CE080F4405040EA0A
:102A70000800C6F8000C0F48006840698047002035
:102A8000BDE8F0810C4890F82C100020FFF73CFEC8
:102A9000D5F8000C384080F4405040EA0800C5F8F2
:102AA000000CE8E70220EBE7080000201C010020F2
:102AB00000500040100000204401002010B5074CD9
:102AC00030B1074800680068804720680A3010BDB0
:102AD000216801200882002010BD000008000020AD
:102AE00010000020054A13685A8A10B10868104483
:102AF00070478888801A18820020704708000020DC
:102B000010B5074C30B107480068806880472068DE
:102B10000C3010BD216801200882002010BD00008B
:102B20000800002010000020204910B5096860B19D
:102B30001F48002202800A7853060AD002F07F0262
:102B4000012A16D0022A16D001E0022008820020B5
:102B500010BD497A8A06027802D542F0020201E0ED
:102B600002F0FD0249060270D1B211D401F0FE015B
:102B700010E00F4810BD4A79110713060D4A02EB09
:102B80009161D1F8001C07D5C1F3011106E001786D
:102B900041F00101017003E0C1F301310129F6D0D8
:102BA0000548006800698047E3E70000080000204E
:102BB0000200002000500040100000200A4810B51C
:102BC00000680A4AC1785278914203D882780AB9DB
:102BD00082880AB1022010BD8172054800684068F1
:102BE0008047002010BD0000080000201C010020CC
:102BF00010000020064810B50068417A41F020011D
:102C0000417204480068C0698047002010BD000080
:102C1000080000201000002070B51D481D4D0368FD
:102C2000597921F0800005EB80000C06D0F8004CAB
:102C300021F0800203D5C4F30114240102E0C4F39F
:102C400001342403144D2D78954210D95A8872B955
:102C50006CB19A7A5AB10906D0F8001C48F2800289
:102C600007D548F6BF73194081F0100106E0022035
:102C700070BD4BF68F73194081F480511143C0F839
:102C8000001C0648006880698047002070BD000075
:102C900008000020005000401C010020100000200F
:102CA00010B50E4C0E4A20681268C17892694079BE
:102CB000904721688A7A22B118B9087908B98878CA
:102CC00008B1022010BD07480068C068804720682E
:102CD0004179C172C1780173002010BD0800002045
:102CE0000C000020100000200648016889B241F065
:102CF00008010160016889B241F004010160FEF73A
:102D0000A9BA0000405C004010B500F045F8044846
:102D10000168491E016003490878401C087010BD15
:102D20009000002081000020164810B5016841F491
:102D3000700101601448016841F0010101604168BF
:102D4000124A114041600168114A11400160016856
:102D500021F480210160416821F4FE014160C16AD3
:102D600021F00F01C162016B0A4A11400163002189
:102D70008160FFF757FD03494FF00060803908601C
:102D800010BD000088ED00E0001002400CC07FF88C
:102D9000FFFFF6FECCFC00FF03484168002902D08B
:102DA0004168491E416070478000002010B5002036
:102DB000FFF7E4FABDE810401220FEF7A9B90000C1
:102DC000044A00284FF48041104601D0FEF79DBA16
:102DD000FEF79DBA0010004806480549022201602E
:102DE0000A72064A0449C0E9011208680047000057
:102DF000C4010020080000204401002094010020AC
:102E000038B54FF4A060FFF71DF814208DF80000CE
:102E100002208DF8010000258DF8025001248DF864
:102E200003406846FEF7DCFF2A208DF800008DF88D
:102E300001408DF803406846FEF7D2FF06208DF86A
:102E400000008DF801506846FEF7CAFF38BD00004B
:102E500070B5294E3068294C60806088284D2988DB
:102E60000840000401D5FDF7BFFC608829880840B0
:102E7000400505D54FF6FF30306022484068804756
:102E8000618828880140890402D54DF6FF713160C0
:102E900061880140C80405D54EF6FF7030600020FF
:102EA000FFF76CFA60882988084000050BD51648A2
:102EB000007810B1FFF718FF02E00220FFF75EFA7A
:102EC0004FF2FF703060618828880140890505D580
:102ED0004FF6FF5131602178491C21706188014013
:102EE000C80507D54FF6FF603060BDE87040072089
:102EF000FFF744BA70BD0000445C0040DE000020D3
:102F00001400002044010020BC010020FFF7A0BFF6
:102F100005490020086005494FF43F4008800249F8
:102F2000091F086000207047445C00401400002026
:102F3000FEE70000094B10B5521C520803EB41019B
:102F40000AD000BF10F8013B521E10F8014B43EAB3
:102F5000042321F8043BF5D110BD000000600040BF
:102F60004100080218BF04200A0E18BF40F00100FB
:102F70004FF07F4232EA010108BF40F00200012811
:102F800008BF05207047000010B5B94A2DED020BAF
:102F90002DED0C8B82B00F9921F000409FEDB6CB48
:102FA00090422CDBA0F140530E9AA3F17F631A43A9
:102FB0000FD0B349884202DC16D10E98A0B19DED26
:102FC0000E0B02B0BDEC0C8B02B0BDE8104000F05F
:102FD00096BB0029C1BF9FEDAC0B02B0BDEC0C8BC2
:102FE00002B0C8BF10BD16E0012000F0C1FB02B066
:102FF000BDEC0C8B02B0BDE8104000F08DBBA44AC4
:103000009FEDA59B9FEDA6AB90425EDAA6499FED92
:10301000A8CB814208DBB0EE4C0AF0EE6C0A02B09D
:10302000BDEC0C8B02B010BD9DED0E0B53EC102BC4
:1030300051EC100BFDF76DF941EC180B9E48062181
:10304000B0EE480AF0EE680A784400F0DCFA53EC7F
:10305000182B51EC100BFDF75CF941EC1B0B97485A
:10306000B0EE480AF0EE680A0421784400F0CBFA8A
:1030700053EC182B51EC100BFDF74BF953EC192BBB
:10308000FDF7A0F841EC100B51EC1B0B53EC102B8F
:10309000FDF7B1F941EC100B53EC102B9DED0E0B2D
:1030A00051EC100BFDF735F953EC1A2BFDF72EF907
:1030B0009DED0E1B53EC112BFDF728F953EC1C2B47
:1030C000FDF724F941EC100BA9E79FED7D8B9FEDF7
:1030D0007EBB9DED0E0B002953EC192B51EC100B10
:1030E00052DAFDF76FF853EC182BFDF712F941ECAB
:1030F000180B77480621B0EE480AF0EE680A7844CB
:1031000000F081FA53EC182B51EC100BFDF701F98C
:1031100041EC1D0B6F48B0EE480AF0EE680A04213E
:10312000784400F070FA53EC182B51EC100BFDF7BB
:10313000F0F853EC192BFDF745F841EC190B51EC65
:10314000180B00F045FF41EC180B53EC192B51EC18
:103150001D0BFDF750F953EC182BFDF7DAF853EC83
:103160001A2BFDF7D0F841EC100B51EC180B53EC77
:10317000102BFDF727F853EC1B2BFDF7CAF853EC87
:103180001C2BFDF7C3F86DE0FDF7C0F853EC182BCE
:10319000FDF7BFF841EC180B00F01AFF41EC1A0BD9
:1031A00000208DED00AB00909DED000B51EC1A0B53
:1031B00053EC102BFDF706F89DED000B41EC1C0BBA
:1031C00053EC102B51EC100BFDF7A3F853EC182B1C
:1031D000FDF79CF853EC1C2BFDF70DF941EC1C0B93
:1031E0003D48B0EE480AF0EE680A0621784400F047
:1031F0000AFA53EC182B51EC100BFDF78AF841EC4E
:103200001D0B3648B0EE480AF0EE680A04217844F7
:1032100000F0F9F953EC182B51EC100BFDF779F88D
:1032200053EC192BFCF7CEFF41EC100B51EC1D0BAE
:1032300053EC102BFDF7DFF853EC1A2BFDF769F870
:1032400053EC1C2BFCF7BEFF41EC100B53EC102B86
:103250009DED000B51EC100BFCF7B4FF53EC1B2B56
:10326000FDF757F841EC100BD9E600000000000014
:103270000000F03F00000000182D4454FB210940DD
:103280000000F07F000000000000000000000000CF
:103290000000E03F00000000000000000000F03FE0
:1032A000075C143326A6913C0000603C000000003F
:1032B000182D4454FB21F93FFC1000000A110000B6
:1032C000000000000000E03F00000000000000409F
:1032D0004610000054100000580F0000660F000058
:1032E00070B54FF068422DED048BF0EE408A18EE79
:1032F000900AB0EE608A18EE101A02EB4003B3F1A8
:10330000654F3CBF02EB4102B2F1654F7DD200BF79
:10331000C0F3C753C1F3C7529A1A1B2A09DD10F034
:10332000004F14BF9FED830A9FED830ABDEC048B11
:1033300070BD12F11A0F36DA11F0004F09D010F0FB
:10334000004F0CBF9FED7D0A9FED7D0ABDEC048B05
:1033500070BD88EE889A19EE100AFFF701FE042866
:1033600008BF00F0EDF918EE900AFFF7F9FD0546E9
:1033700018EE100AFFF7F4FD044619EE100AFFF7E5
:10338000EFFD042D18BF052D08D1042C18BF052C06
:1033900004D1002804BF022000F0EAF9B0EE490A87
:1033A000BDEC048B70BD4200B2EB410F3AD910F076
:1033B000004F19BFDFED630A9FED630ADFED630A7B
:1033C0009FED630AB0EE481A0A46B1EE688A80F0B3
:1033D0000041F0EE418A10460A1A5200B2F1807F95
:1033E00034D2484010F0004FDFED5A1A9FED5A2AB0
:1033F0001DBFBEEE001A70EEE10A30EE420AB6EED4
:10340000001A08BF70EEA10A00E040E008BF30EEED
:10341000020AB0EE682A01EE482A08EE818AC2EE5E
:10342000081A15E011F0004F04BF9FED4C0AF0EEB2
:10343000400AD1D010F0004F19BFDFED490A9FEDCF
:10344000490ADFED490A9FED490AC5E7C8EE881A27
:1034500021EEA11A9FED462ADFED462A41EE022A0F
:103460009FED452A01EE222ADFED442A41EE022A91
:103470009FED432ABDEC048B01EE222A21EE811A36
:1034800001EE020A30EE210A30EE200A70BD4FF044
:103490007F42B2EB400F28BFB2EB410F09D2F0EEF2
:1034A000480AB0EE680ABDEC048BBDE8704000F03D
:1034B00043B940EA01035B0008BF41F0FF410BD074
:1034C000B2EB400F08BFB2EB410F08D120F08040B3
:1034D00008EE900A21F0804108EE101A18E7B2EBCE
:1034E000400F12BF5FEA410340F0FF4001F000418E
:1034F0003FF40EAFB2EB410F12BF5FEA400200F0A3
:10350000004041F0FF413FF403AF4A0092EA40031C
:103510003FF5FEAE002AACBF9FED1A0A9FED1A0AD6
:1035200068EE808A28EE008A18EE900A18EE101ACB
:10353000EEE60000DB0FC9BFDB0FC93FDB0F4940E0
:10354000DB0F49C00000C9BF22AAFDB90000C93F76
:1035500022AAFD390060ED3EC30ACE37000000000C
:10356000000049C022AA7DBA0000494022AA7D3A43
:103570002DAD65BD8FB8D53D0FB511BE61C84C3EB0
:10358000A8AAAABE0000804F0000802F00B52DED34
:10359000048BB0EE409AF0EE609A83B051EC190BB8
:1035A000FDF77CF841EC180B18EE100A18EE901A93
:1035B0008DED008B002818BF0120084320F000404B
:1035C000C0F17F6000F1E040C00F14D019EE101A76
:1035D00019EE900A8DED009B002918BF01210843C8
:1035E00020F00040C0F17F6000F1E040C00F04BF58
:1035F000012000F0BDF8B0EE480A03B0F0EE680A12
:10360000BDEC048B00BD70B504462DED028B4D1E44
:1036100000EBC500B0EE408AF0EE608A90ED000B42
:1036200035F0060017D053EC182B51EC100BFCF7BB
:1036300070FE41EC100B6D1E04EBC50090ED001BFD
:1036400051EC100B53EC112BFCF7BCFD41EC100BB3
:1036500035F00600E7D1022D36D0042D1CD0062D02
:103660001CBFBDEC028B70BD53EC182B51EC100B42
:10367000FCF74FFE94ED0A1B53EC112BFCF7A2FD57
:1036800053EC182BFCF745FE94ED081B53EC112B63
:10369000FCF798FD41EC100B53EC182B51EC100B80
:1036A000FCF737FE94ED061B53EC112BFCF78AFD5B
:1036B00053EC182BFCF72DFE94ED040B53EC102B60
:1036C000FCF780FD41EC100B53EC182B51EC100B68
:1036D000FCF71FFE94ED021B53EC112BFCF772FD5F
:1036E00053EC182BFCF715FE94ED001B53EC112B3B
:1036F000FCF768FDBDEC028B41EC100B70BD10B502
:1037000053EC102B51EC100BFCF75CFD41EC100B53
:1037100010BD0000000000009FED050B10B553EC3C
:10372000102B51EC100BFCF766FE41EC100B10BD9A
:10373000000000000000000030EE200A704700008A
:103740009FED020A20EE000A704700000000001002
:1037500002E008C8121F08C1002AFAD1704770475A
:10376000002001E001C1121F002AFBD170470000B8
:103770000149086070470000C00100202DED0A8B50
:10378000FE48FEF77DFCFD48642100244068B0FB44
:10379000F1F1491EB1F1807F09D24FF0E020416183
:1037A000F74AF02182F8141D84610721016100208D
:1037B000FEF7B6FE0120FEF7B3FE0220FEF7B0FED4
:1037C0000320FEF7ADFE0420FEF7AAFE0520FEF75B
:1037D000A7FE0620FEF7A4FE0720FEF7A1FE0121AA
:1037E0000020FEF7F3FEFDF73FFCA0462046E54C27
:1037F000A060DFF888936FF0040AA9F10C09A9F121
:103800000C059FEDE1AB9FEDE28B9FEDE39B9FED00
:10381000E4BAE44FE44EDFF894B30020FEF7A4FED0
:103820000320FEF7A1FE0420FEF79EFE0120FEF716
:103830009BFE0720FEF798FE0520FEF795FE06206A
:10384000FEF792FE0220FEF78FFE2FE00020FEF72B
:10385000A3FE0520FDF72AFA0220FEF79DFE0520B3
:10386000FDF724FA0420FEF797FE0520FDF71EFA67
:103870000620FEF791FE0520FDF718FA0720FEF757
:103880008BFE0520FDF712FA0520FEF785FE0520C8
:10389000FDF70CFA0320FEF77FFE0520FDF706FA80
:1038A0000120FEF779FE0520FDF700FAA068002848
:1038B000CCD084F801800020FEF756FE0320FEF7EE
:1038C00053FE0420FEF750FE0120FEF74DFE0720B8
:1038D000FEF74AFE0520FEF747FE0620FEF744FEEF
:1038E0000220FEF741FEFDF737FB68E0607805280F
:1038F000FCD184F801800020FEF736FE0320FEF79D
:1039000033FE0420FEF730FE0120FEF72DFE0720D7
:10391000FEF72AFE0520FEF727FE0620FEF724FE0E
:103920000220FEF721FE95480C38FDF737FB99ED94
:10393000000A4846BDEEC00A10EE101A49B200292E
:1039400010EE101A49B200DA4942CAB2A270D0EDA4
:10395000010AFDEEE00A10EE901A49B2002910EEBD
:10396000901A49B200DA4942C9B221708A4212D98A
:1039700010EE100A40B2052802DD0720FEF700FE17
:1039800099ED000ABDEEC00A10EE100A40B2504593
:1039900015DA002011E010EE900A40B2504502DA2C
:1039A0000320FEF7EDFD99ED010ABDEEC00A10EE11
:1039B000100A40B2052802DD0420FEF7E1FDA068F0
:1039C000012893D084F801800120FEF7CDFD00206E
:1039D000FEF7CAFD0320FEF7C7FD0420FEF7C4FD75
:1039E0000720FEF7C1FD0520FEF7BEFD0620FEF70D
:1039F000BBFD0220FEF7B8FDFDF762F9CFE260786B
:103A00000528FCD184F801805C482438FDF706FACB
:103A10005A481838FDF786F900209FED650A00BF67
:103A200005EB8001401CD1ED000AC0B2032880EEF6
:103A3000801A81ED001AF3D395ED000AD5ED010A45
:103A400020EE000A00EEA00AD5ED020A00EEA00A60
:103A500010EE100AFCF73EFD41EC100BFFF796FD4F
:103A600051EC100BFCF749FD00EE100A84ED090A39
:103A7000D5ED010AB1EE601AC1EE000AC4ED0A0AE2
:103A800020EEA00A10EE100AFCF724FD9FED49CBB2
:103A900053EC1C2BFCF73AFC41EC100BFFF776FDC6
:103AA00051EC100BFCF729FDE062D5ED000A94ED16
:103AB000091A80EE810A84ED0C0A20EE000A10EE4D
:103AC000100AFCF707FD53EC1C2BFCF71FFC41EC24
:103AD000100BFFF75BFD51EC100BFCF70EFD606166
:103AE00094ED0A0AB5EEC00AF1EE10FA94ED0B0A55
:103AF0002EDDB5EEC00AF1EE10FA12DD10EE100A5E
:103B0000FCF7E8FC41EC100BFFF73EFA53EC182BE6
:103B100051EC100BFCF7FDFB53EC192BFCF76BFC85
:103B200056E010EE100AFCF7D5FC41EC100BFFF745
:103B30002BFA53EC182B51EC100BFCF7EAFB53EC6F
:103B4000192BFCF758FC41EC100B53EC182B3BE005
:103B5000B5EEC00AF1EE10FAE3DD10EE100AFCF744
:103B6000B9FC41EC100BFFF70FFA53EC182B51EC9A
:103B7000100BFCF7CEFB53EC192B1FE004020020C6
:103B80000FE000E080000020000000000080764090
:103B9000000000000080664000000060FB2109403A
:103BA0000000B443000020420000B4430000C841BC
:103BB0000000C842000000000000F03FFCF71BFCC2
:103BC00053EC1A2B41EC100B51EC100BFCF7FAFAEA
:103BD000FCF793FCA06194ED0C0AB5EEC00AF1EE7F
:103BE00010FA94ED050A2EDDB5EEC00AF1EE10FADA
:103BF00012DD10EE100AFCF76DFC41EC100BFFF724
:103C0000C3F953EC182B51EC100BFCF782FB53EC6F
:103C1000192BFCF7F0FB35E010EE100AFCF75AFC0C
:103C200041EC100BFFF7B0F953EC182B51EC100BD3
:103C3000FCF76FFB53EC192BFCF7DDFB41EC100B91
:103C400053EC182B1AE0B5EEC00AF1EE10FAE3DDE2
:103C500010EE100AFCF73EFC41EC100BFFF794F954
:103C600053EC182B51EC100BFCF753FB53EC192BB6
:103C7000FCF7C1FB53EC1A2B41EC100B51EC100B71
:103C8000FCF7A0FAFCF739FCE06194ED060A10EEAF
:103C9000100AB04203DB30EE4B0A84ED060A94EDC5
:103CA000070A10EE100AB04203DB30EE4B0A84ED37
:103CB000070ABD48D4ED051A94ED0C1A90ED000AE0
:103CC00090ED022A60EE210A42EE010AC4ED0D0ACF
:103CD00094ED0A2AD4ED0B2A20EE020A20EE010A06
:103CE00090ED011A01EE220A21EE021A01EE610A9C
:103CF00084ED080AFFF7F4FADFEDAC0A20EE200AA3
:103D0000DFEDAB0A80EE201A84ED031A94ED030A6E
:103D1000B5EEC00AF1EE10FA05D294ED030A30EECA
:103D20000B0A84ED030AA069B8426FDCE069B8426F
:103D3000FBDC94ED030A10EE101A594506DA94EDF7
:103D4000030AB5EEC00AF1EE10FA0CDA94ED030A9C
:103D5000984910EE102A8A4219DB94ED030A10EEFE
:103D6000102AB24213DC0720FEF70AFC0020FEF7FF
:103D7000FBFB0320FEF7F8FB0420FEF7F5FB012018
:103D8000FEF7F2FB0520FEF7EFFB0620E8E094EDDE
:103D9000030A894A10EE103A934216DA94ED030AA8
:103DA00010EE103A5B4510DB0620FEF7E9FB03201E
:103DB000FEF7DAFB0720FEF7D7FB0020FEF7D4FB67
:103DC0000520A4E0FEF7D0FBE9E094ED030A7B4B6D
:103DD00010EE100A98421ADA94ED030A10EE100A57
:103DE000904214DB0420FEF7CBFB0020FEF7BCFB67
:103DF0000120FEF7B9FB0620FEF7B6FB0720FEF711
:103E0000B3FB0520FEF7B0FB0320A9E0ACE094ED86
:103E1000030A6B4810EE102A82421CDA94ED030A62
:103E200010EE102A9A4216DB0220FEF7A9FB0320AF
:103E3000FEF79AFB0720FEF797FB0520FEF794FBA1
:103E40000620FEF791FB0420FEF78EFB0120FEF713
:103E50008BFB0020B6E794ED030A5A4A10EE103AA5
:103E6000934219DA94ED030A10EE103A834213DB01
:103E70000020FEF785FB0320FEF776FB0120FEF70E
:103E800073FB0520FEF770FB0620FEF76DFB02209A
:103E9000FEF76AFB072040E094ED030A4A4810EE63
:103EA000103A834219DA94ED030A10EE103A934265
:103EB00013DB0120FEF764FB0320FEF755FB072010
:103EC000FEF752FB0520FEF74FFB0620FEF74CFBEA
:103ED0000220FEF749FB00201FE094ED030A3B4A55
:103EE00010EE103A93421CDA94ED030A10EE103AE9
:103EF000834216DB0320FEF743FB0620FEF734FB6C
:103F00000720FEF731FB0520FEF72EFB0020FEF711
:103F10002BFB0220FEF728FB0120FEF725FB0420E7
:103F200050E794ED030A10EE100A884237DA94ED58
:103F3000030A10EE100A904231DB0520FEF720FB49
:103F40000320FEF711FB0720FEF70EFB0420FEF70F
:103F50000BFB0620FEF708FB0020FEF705FB012007
:103F6000FEF702FB02202DE70420FEF715FB0320DD
:103F7000FEF712FB0720FEF70FFB0520FEF70CFBF8
:103F80000620FEF709FB0020FEF706FB0120FEF7E6
:103F900003FB0220FEF700FB0520FCF787FEA0686C
:103FA00002287FF43AAC2AE5E00100200000344307
:103FB000DB0F49400000AA4300008C420000E642AB
:103FC0000000204300004D4300007A4300809343EB
:103FD00000B52DED048B83B041EC190BFCF75EFBB3
:103FE00041EC180B18EE100A18EE901A8DED008BAC
:103FF000002818BF0120084320F00040C0F17F6076
:1040000000F1E040C00F14D019EE101A19EE900A1A
:104010008DED009B002918BF0121084320F00040CE
:10402000C0F17F6000F1E040C00F04BF0120FFF746
:104030009FFB51EC180B03B0BDEC048B00BD0000DE
:104040000000060001000000000002000002000164
:104050000004008000080040001000200000200044
:1040600000002000000020000000200000002000D0
:1040700000002000000020000000200012010002CB
:1040800000000040830410570002010203010902EE
:104090002200010100E032090400000103010200D6
:1040A000092100010001224A0007058103040020C4
:1040B00005010902A1010901A1000509190129034E
:1040C0001500250195037501810295017505810192
:1040D00005010930093109381581257F75089503D7
:1040E0008106C0093C05FF090115002501750195F0
:1040F00002B12275069501B101C00403090426032B
:10410000530054004D006900630072006F006500A9
:104110006C0065006300740072006F006E0069003F
:10412000630073001E03530054004D00330032003F
:1041300020004A006F00790073007400690063007A
:104140006B00000000000000555555555555C53F02
:104150007D6FEB0312D6D4BF5544880E55C1C93FBD
:104160003B8F68B52882A4BF88B20175E0EF493F54
:1041700009F7FD0DE13D023F4B2D8A1C273A03C094
:10418000C88A599CE52A004059018D1B6C06E6BF80
:1041900082922EB1C5B8B33FB8410008000000209C
:1041A000C40100008407000868420008C401002020
:1041B0007C04000060370008011F12480A1F100429
:1041C0002162A02D01020304041D060708090E1137
:1041D0001202120412061208120A1A0C27122012D6
:1041E000402A8017011D022D64494D141A035312F1
:1041F00054124D1233123212310211301395100C39
:104200003008DD1D045A02AC137C403308121A8EAC
:104210000832221AB0082A4AF7190819E911139D21
:10422000161408C1151B0899081A9B0413CD141BFA
:1042300008A1101A95041A35041A29041A750441A4
:1042400032401AFA3832041AFE0832261324413357
:10425000081E22C433201A297C1A5D480916981AB0
:08426000751C89FE210000001D
:040000050800018965
:00000001FF
