:020000040800F2
:1000000040060020F53C00089D3B00089F3B00088F
:10001000A13B0008A33B0008A53B0008000000002E
:10002000000000000000000000000000A73B0008E6
:10003000A93B000800000000AB3B0008AD3B0008F6
:10004000413D0008453D0008493D00084D3D000880
:10005000513D0008553D0008C53B00085D3D0008C6
:10006000613D0008653D0008693D00086D3D0008E0
:10007000713D0008753D0008793D00087D3D000890
:10008000813D0008853D0008893D00088D3D000840
:10009000353C0008953D0008993D00089D3D00084D
:1000A000A13D0008A53D0008A93D0008AD3D0008A0
:1000B000B13D0008B53D0008B93D0008BD3D000850
:1000C000C13D0008C53D0008C93D0008CD3D000800
:1000D000D13D0008D53D0008D93D0008DD3D0008B0
:1000E000E13D0008E53D0008393C0008ED3D000811
:1000F000F13D0008F53D0008F93D0008FD3D000810
:10010000000000000000000000000000013E0008A8
:10011000053E0008093E00080D3E0008113E00089B
:10012000153E0008193E00081D3E0008213E00084B
:10013000253E0008293E00080000000000000000E5
:100140002D3E0008313E0008353E0008000000004A
:10015000000000000000000000000000000000009F
:100160000000000000000000393E00083D3E00088D
:10017000413E0008000000000000000000000000F8
:1001800000000000453E0008DFF8486A06F11C0048
:1001900000F08EFD306A6421B0FBF1F0B0F1807F99
:1001A0000DD20002DFF8301A000A401E4860F0222B
:1001B000DFF8280A0270002088600720086000200D
:1001C00000F0E6FE012000F0E3FE022000F0E0FE79
:1001D000032000F0DDFE042000F0DAFE052000F030
:1001E000D7FE062000F0D4FE072000F0D1FE01214A
:1001F000002000F00BFF00F021FB002070664FF0A4
:10020000C048DFF8DC99DFF8DC5900F00EFB00F0A5
:1002100002FB00F0F5FA00F00BFB00F00CFB00F025
:10022000F7FA00F0F0FA00F0E8FA27E0012000F019
:10023000E2FE00F0EBFA022000F0DDFE00F0E6FA4C
:10024000062000F0D8FE00F0E1FA052000F0D3FE11
:1002500000F0DCFA072000F0CEFE00F0D7FA042010
:1002600000F0C9FE00F0D2FA032000F0C4FE00F056
:10027000CDFA002000F0BFFE00F0C8FA706E002832
:10028000D4D00020B07000F0ADFE00F0C4FA00F051
:10029000B7FA00F0CDFA00F0CEFA00F0B9FA00F0AB
:1002A000B2FA00F0AAFA00F0DDFA0FE0062FA4BFC0
:1002B000072000F08EFEB06D00F025FF6FF0040106
:1002C00040B2884202DA012000F083FE706E0128FD
:1002D0003AD100F08CFA00F085FE00F09CFA00F0B4
:1002E0008FFA00F0A5FA00F0A6FA00F091FA00F0FB
:1002F0008AFA00F082FA06F1580000F0D3FAB06DE5
:1003000000F001FF47B2002F4CBF784238463070F2
:10031000F06D00F0F8FE40B200284CBF41420146AB
:100320007170717832789142C0D36FF004018842C5
:10033000BCBF032000F04DFEF06D00F0E4FE40B2C3
:100340000628C3DB0620BFE70020B07000F070FA7B
:1003500000F06BFA00F05FFA00F052FA00F06BFA6E
:1003600000F056FA00F04FFA00F047FA00F0EFFA0A
:1003700019E0042000F03FFE032000F03CFE0720BF
:1003800000F039FE052000F036FE062000F033FEB6
:10039000002000F030FE012000F02DFE022000F0D1
:1003A0002AFE00F033FA706E02287FF42EAF00F0C0
:1003B0001EFA301D00F06AFB06F1100000F0FAFA98
:1003C000002706EB870ADFF82018DAF8100000F0A3
:1003D000A1FECAF810007F1C032FF2DB3169B76958
:1003E000D6F814A0084600F09EFE834650465146BB
:1003F00000F099FE594600F09FFE82463846394685
:1004000000F091FE514600F097FE00F0B5FE00F0BE
:10041000EBFE00F061FFF0667069F16E00F07AFEAD
:1004200080F000413167084600F07DFE00F0A4FE38
:1004300000F0F4F900F0D8FE00F04EFFF16E7067A6
:10044000306900F067FE0146B16700F06CFE00F015
:1004500093FE00F0E3F900F0C7FE00F03DFF776F78
:10046000F067384600F088FE02460B46306F0021E8
:1004700000F07AFF38460BD200F076FF104619469E
:1004800015D200F083FF00F0AEF900F0A8F918E0F3
:1004900000F06AFF1046194609D200F077FF00F01D
:1004A000A2F900F09CF90022DFF8403707E000F0E5
:1004B0006DFF00F098F900F092F900222B4600F051
:1004C000EDFF00F009FFF76FC6F88000384600F036
:1004D00053FE02460B46B06F002100F045FF384640
:1004E0000BD200F041FF1046194615D200F04EFF26
:1004F00000F079F900F073F918E000F035FF1046CC
:10050000194609D200F042FF00F06DF900F067F9DA
:100510000022DFF8D83607E000F038FF00F063F97A
:1005200000F05DF900222B4600F0B8FF00F0D4FE89
:10053000D6F88070DFF8B8168246384600F014FF0F
:1005400006D8DFF8B006394600F0F6FDC6F88000A0
:100550005046DFF89C1600F007FF05D8DFF8940638
:10056000514600F0E9FD82467768F06FC6F884A036
:10057000394600F0D8FD8246F068B16F00F0D3FD37
:10058000514600F0D9FDD6F808B08246306FC6F863
:1005900088A0394600F0C7FDB16F00F0C4FD0746E2
:1005A000706F594600F0BFFD394600F0C5FD0746A3
:1005B000306F594600F0B7FDF16F00F0B4FD014611
:1005C000384600F0DFFFC6F88C00514600F0E4FF2B
:1005D000DFF8241600F0A7FDDFF8201600F09AFDE2
:1005E000B0660021B06E01F017F805D2B06EDFF8EA
:1005F000001600F0A1FDB066D6F88000DFF8001606
:1006000001F00AF803D2D6F8840001F005F8BFF42F
:10061000B0AEB06EDFF8EC1500F0FEFF04D2B06EA5
:10062000002100F0A1FE0BD9B06EDFF8DC1500F060
:100630009BFE19D8B06EDFF8D41500F0EDFF13D291
:10064000072000F0C6FC00F0F0F800F0E4F800F03D
:10065000D7F800F0EDF800F0DBF8062000F0C2FC5F
:10066000022000F0BFFC9EE6B06EDFF8A41500F09B
:10067000D3FF19D2B06EDFF88C1500F075FE13D8D9
:10068000052000F0A6FC00F0C6F800F0D4F8002029
:1006900000F0A8FC062000F0A5FC00F0AEF8012058
:1006A00000F0A0FC0420DCE7B06EDFF8681500F075
:1006B000B3FF14D2B06EDFF8581500F055FE0ED817
:1006C000062000F086FC00F0B0F800F0B1F800F071
:1006D00097F800F0B0F800F09BF80320BEE7B06E8A
:1006E000DFF8341500F098FF16D2B06EDFF824154D
:1006F00000F03AFE10D8022000F06BFC00F08BF8FE
:1007000000F099F800F084F800F07DF800F078F837
:1007100000F08EF80020A4E7B06EDFF8001500F0BE
:100720007BFF14D2B06EDFF8F01400F01DFE0ED87F
:10073000012000F04EFC00F06EF800F076F800F0BA
:1007400067F800F060F800F058F80720A8E7B06EEE
:10075000DFF8CC1400F060FF0ED2B06EDFF8BC14EE
:1007600000F002FE08D8002000F033FC00F053F83F
:1007700000F061F805208BE7B06EDFF8A81400F0F8
:100780004BFF10D2B06EDFF8981400F0EDFD0AD8E0
:10079000032000F01EFC00F036F800F04CF800F0EA
:1007A00037F8002077E7B06EDFF85C1400F034FF14
:1007B000BFF4F9ADB06EDFF86C1400F0D5FDF7D8DA
:1007C000042000F006FC00F026F800F034F800F0F9
:1007D0001FF800F018F800F028F801203EE7424624
:1007E0004B4600F02BBF00222B4601F04BB8B078EF
:1007F0000528FCD10020B0707047022000F0F2BB49
:10080000042000F0EFBB062000F0ECBB0520D0E197
:10081000052000F0E7BB032000F0E4BB02460B46D6
:100820000020DFF8041401F0FFB8002000F0DABB6C
:10083000012000F0D7BB072000F0D4BB80B501F049
:10084000B3F901F0F9F901F02DFA01F093FADFF8AC
:10085000DC03DFF8DC130A68052A1CBF0268002AE3
:10086000F9D101BDE0B508208DF8000000208DF819
:10087000010007208DF8020030208DF803000020D1
:10088000ADF8040010208DF8060000A801F082FAEF
:100890000020ADF8080002A801F0ADFA102001F028
:1008A000BEFA07BDF0B585B0044601A800210022BC
:1008B00006C006C08DF800100D460F460122232108
:1008C00000A801F0D6FA0622282101A801F0D1FAE9
:1008D0009DF8001003AE01A849060DD401A901EB53
:1008E000470110F81720497812EB012126F817105C
:1008F0007F1C032FF2DB0DE001AA02EB470210F888
:1009000017105278090251FA82F126F817107F1C4D
:10091000032FF1DB9DF8000010F0300005D0102807
:1009200005D0202808BFC34D02E0C34D00E0C34DF1
:10093000002736F9170001F089FB294600F0EAFB91
:1009400044F827007F1C032FF3DB05B0F0BD00B592
:1009500085B000208DF8040014208DF80500E020FB
:100960008DF8070000208DF8060001A801F0BFFBFC
:1009700000208DF8080040208DF8090007208DF830
:100980000A0000208DF80E00ADF80C0008208DF84C
:100990000B0002A801F062FB80208DF800001020FF
:1009A0008DF801000020ADF8020000A801F07DFBE9
:1009B00005B000BDF0B585B0044600F061F806232F
:1009C00001AA2821322001F022FC00AE01A8717892
:1009D00003AF490648BF402104D49DF800201021F0
:1009E000520611D4002201AB03EB42035B7810F8EE
:1009F00012C01B020CFA83F393FBF1F327F81230B9
:100A0000521C032AEFDB12E0002101AB03EB410390
:100A100010F811205B78120203FA82F2D31002EB75
:100A20001372121127F81120491C0329EDDB00F085
:100A300027F87078400612D49DF8000010F03000BE
:100A400007D0102808D0202809D0302808BF7C4DB6
:100A500007E04FF07E5504E04FF07C5501E04FF089
:100A60007A55002637F9160001F0F0FA294600F011
:100A700051FB44F82600761C032EF3DB05B0F0BDD5
:100A8000022300AA2321322001F0C1BB2DE9F04747
:100A900082B0044600208DF8000080460123002526
:100AA00000AA19463C2001F0B2FB664F01233A46EA
:100AB000032100F07BF801237A1C042100F076F872
:100AC0000123BA1C072100F071F80123FA1C082148
:100AD00000F06CF801233A1D052100F067F80123AE
:100AE0007A1D062100F062F89DF8001001F0E00187
:100AF0004FF4C87020290FD0402912D0602915D09A
:100B0000802918D0A0291AD0C0291CD0E02904BF00
:100B1000E6254FF0CD081AE040F24C454FF47578C9
:100B200015E040F257354FF43E7810E040F29E2534
:100B30004FF416780BE04FF4E175804607E0054668
:100B400040F2631803E04FF4A57540F22718002621
:100B50004FF47A7907EB460117F81600497800023E
:100B600050FA81F010FB09F001F070FA8246284635
:100B700001F04AFC0146504600F0CCFA44F8260049
:100B8000761C022EE6DB3879797911EB002010FB18
:100B900009F001F05BFA0546404601F035FC0146DC
:100BA000284600F0B7FAA060BDE8F3873C2001F0CA
:100BB0002EBB01B424480099016001680029FCD1D2
:100BC00001B070472048016811B10168491E0160F9
:100BD000704700004C01002010E000E023ED00E031
:100BE000FB210940008066400000C842008076403A
:100BF0000000B4430000B4C300003443DB0F49409D
:100C0000010020420000C8410000AA430100B44393
:100C100000008C420000E6420000204300004D43EB
:100C200000007A43008093430000F03F340100202D
:100C30002C0200205C8F6441EC91E44254926442A7
:100C40009FCDAA3D0C02002014020020FEE7FEE723
:100C5000DFF80C1300220A700870704710B582B0DC
:100C6000002000900024112000F05FF90099491C39
:100C700000910099B1F5A06F01D00028F3D01120A8
:100C800000F053F900B10124204616BDDFF8D81258
:100C900008607047DFF8CC120A68920850EA8200B8
:100CA00008607047DFF8BC02006800F00C00704775
:100CB000F0B5DFF8B012DFF8B4220C68002304F0BE
:100CC0000C04082C13D10B680C68C3F383439B1CE2
:100CD000E40303D4DFF89842634306E08C6A04F02F
:100CE0000F04641CB2FBF4F463431C4600E014469A
:100CF00004600D68DFF87C42C5F303152D5D0768BD
:100D000027FA05FCC0F804C00E68C6F30226365D5B
:100D10002CFA06F686600E68C6F3C226365D2CFAFB
:100D200006FCC0F80CC0D1F828C0CCF3041C04EBBE
:100D30004C0CBCF810C05FEACC6E48BFB3FBFCF7AC
:100D400007618F6AC7F3442704EB4704248AE70648
:100D50004CBFB3FBF4F404684461CC6AE40654BFAE
:100D6000144604688461CC6AA40654BF144604681F
:100D7000C4615C00CF6AFF0505D507689F4204BFC8
:100D8000AE42274600D0C7680762CF6ABF0504D5C8
:100D900007689F4208BFAE4200D0C46844624FF467
:100DA0000043CC6A14F0030F08BFC46805D0CC6AB6
:100DB00004F00304012C02D1046884620CE0CC6AC4
:100DC00004F00304022C08BF836205D0CC6A04F04F
:100DD0000304032C08BF8262CC6A14F4403F08BFAE
:100DE000846806D0CC6A04F44034B4F5803F02D164
:100DF0000468C4620EE0CC6A04F44034B4F5003FE9
:100E000008BFC36206D0CC6A04F44034B4F5403F56
:100E100008BFC262CC6A14F4402F08BF846806D0B1
:100E2000CC6A04F44024B4F5802F02D10468046332
:100E30000EE0CC6A04F44024B4F5002F08BF03632D
:100E400006D0CC6A04F44024B4F5402F08BF0263F6
:100E5000CC6A14F4401F08BF846806D0CC6A04F43E
:100E60004014B4F5801F02D1046844630EE0CC6ADC
:100E700004F44014B4F5001F08BF436306D0CC6AE5
:100E800004F44014B4F5401F08BF4263CC6A14F464
:100E9000400F08BF816806D0CC6A04F44004B4F562
:100EA000800F02D101688163F0BDCC6A04F4400474
:100EB000B4F5000F01D18363F0BDC96A01F44001AC
:100EC000B1F5400F08BF8263F0BD2B490860704741
:100ED0002A4A0029116814BF084321EA0000106063
:100EE0007047274A0029116814BF084321EA00000F
:100EF00010607047234A0029116814BF084321EA93
:100F0000000010607047204A0029116814BF084390
:100F100021EA0000106070471C4A0029116814BFC4
:100F2000084321EA000010607047002142090B4B82
:100F300008BF1A6807D0012A08BF1A6A03D0042A1A
:100F40000CBF5A685A6A012300F01F0003FA00F030
:100F5000024218BF012108467047000000100240FD
:100F600002100240041002406000424200127A0067
:100F700000093D0030000020D80042421410024019
:100F8000181002401C1002400C10024010100240C9
:100F90001CB504460FF23810012150F82400FFF769
:100FA00097FF0FF21C1000A930F8140000900120E8
:100FB0008DF8040000208DF8060001208DF8070050
:100FC00003208DF805003C4850F8240001F024FA75
:100FD00013BD39490FF2E80251F8201032F8100021
:100FE0008861704734490FF2D80251F8201032F866
:100FF00010000885704730490FF2C40351F82010E3
:101000008A8A33F8100050408882704730B5044611
:101010000FF2E0000D4650F8240085B00121FFF7E3
:1010200057FF01210120FFF75CFF00208DF8100021
:101030008DF8130003A90FF2B80030F814000390E4
:101040001E4850F8240001F0E7F9012D28D10FF2D5
:10105000B000215C0FF2A400205C01F031FA0FF225
:10106000980030F81400019000208DF80800082046
:101070008DF8090001208DF80A0001A801F034FA6A
:101080000FF28000205C8DF800000F208DF8010029
:101090008DF8020001208DF8030000A801F0BFFACE
:1010A00005B030BD0FF24801044A31F8101052F873
:1010B000200001F0E8B90000800000203801002085
:1010C0000001000200040080004000100008002021
:1010D0000000200000002000000020000000200090
:1010E0000000200000002000000020000000200080
:1010F00001000000000002000000000000000000ED
:1011000000000000060000EE100ABDEEC00A10EE5E
:10111000100A704700EE100A00EE901A80EE200AC6
:1011200010EE100A704700EE100A00EE901A20EE42
:10113000200A10EE100A704700EE100A00EE901A16
:1011400030EE200A10EE100A704710B450F8041B5D
:1011500081B102681218001D50F8043BDC0744BF3F
:10116000A9F10104E31852F8044B43F8044B091F9A
:10117000F9D1EBE710BC70475FF0FF0C1CEAD051CF
:1011800014BF614506E0C110400721F0E04101F1C4
:101190006051704779B900F0004100020AD0B0FAFE
:1011A00080FC00FA0CF001F16051A1EB0C5101EB55
:1011B000D0214005704741020CBF40F4E0016FF0C0
:1011C00000010020704750F8041B61B150F8042B57
:1011D000D30744BFA9F101039A18002342F8043B46
:1011E000091FFAD1EFE7704740F2FF7C0B0D4DD09D
:1011F000634566D230B421EA035141F4801103F211
:10120000FD3C5FEA5C0C01D300184941890041EACA
:10121000907180004FF440140023E202D50AB1F52A
:10122000100107D46D081DD2091B6419001849412B
:10123000491BF7D56D080AD20919641B00184941EA
:10124000491BEFD56D08F7D301E0520817D0C0183D
:1012500061419B1AAC4100184941801AA941F4D45C
:1012600052080AD0C01AA1419B186C41001849418C
:10127000801AA941E9D45208F4D15B1C6C41610881
:101280004FEA330001EB0C5130BC704750EA0103C8
:10129000FBD030B4B1FA81F311B9B0FA80F41B1964
:1012A0000B3BB3F120042FBF00FA04F19940C3F1C6
:1012B000200420FA04F438BF21439840D3F10103FD
:1012C0009DE76345E1D011F5801FDED850EA41016A
:1012D000DBD0D94301F0DAB94FEAF17CBCF1E04C44
:1012E0002CBFBCF5001F11E05FEA4C0C34BFBCF111
:1012F0007F5F2EE05FEA9C0C4FEA0C1C4FEA3C0C2F
:10130000C10071F100414CEB50707047C90241EAD5
:101310005051C00218BF41F0010141F000414FEAB5
:101320006C50C0F10900212810D240EACC7CCCF1ED
:10133000200C11FA0CF070F10040CCF1200C21FAD5
:101340000CF00CF0004C40EB0C0070474FEACC70F6
:101350007047490011F5001F04D84FEACC10FF3048
:10136000C0057047C81770474FF0807C1CEB400FDA
:1013700094BF1CEB410F05E040EA010C5FEA4C0C06
:1013800001D28142704718BF88427047D0B52DED19
:10139000048B82B041EC180B8DED008BDDE900234E
:1013A000C3F30A5140F2FF72914206D1190350EA89
:1013B000113018BF51EC180B61D151EC180B002201
:1013C000002301F069F93DBF81F0004141EC180BA9
:1013D0000424022451EC180B2B4A2C4B01F05CF92D
:1013E0001CD29FED2C9B51EC190B53EC182B00F0E9
:1013F0001BFB06460F4653EC182B51EC190B00F063
:101400004DF832463B4600F03DFAFFF7EDFE41EC69
:10141000100B51EC180B53EC102B1EE001221C4B4F
:1014200001F03AF923D29FED1B9B51EC190B53ECC1
:10143000182B00F0F9FA06460F4653EC182B51EC26
:10144000190B00F02BF832463B4600F01BFAFFF771
:10145000CBFE84F0020453EC182B00F0EFF802B03E
:101460002246BDEC048BBDE8D04001F02DB901F05F
:1014700023FA212101604FF0FF306FF0004102B0EC
:10148000BDEC048BD0BD0000CE3B7F669EA0E63F46
:101490000000F03F000000000000F03F70B44FF08B
:1014A000004591EA030C44BF6B4000F0C7BA00BF8F
:1014B000841A71EB030603D2001BB1411219734168
:1014C0004FF4001C1CEB410F34BF7CEB430443E0A2
:1014D0000C0DA4EB1356352E50DC45EAC323DB0A72
:1014E00045EAC121C912B6F120050DDD63FA05F602
:1014F000EB4086EA0305124218BF45F00105C0180B
:1015000051F100010CD213E062FA06F5F2405540A9
:10151000F3415A40B340F3405A408018594107D331
:1015200049085FEA30005FEA350528BF45F001054C
:1015300001F58011420875F1004250F1000041EBC5
:10154000045170BC4FF4001C1CEB410F38BF7047B6
:101550000020090D090570471CEB410F10D252EA1B
:1015600043060BD0BCEB410F05D80C0DAB43661EF8
:10157000342EB5DD02E0AB438018594170BC704792
:1015800070BC704700EE100A00EE901A30EE600A50
:1015900010EE100A70470000734641EC100A00F08C
:1015A00003F810EE100A184710EE101A10EE902AE9
:1015B000B0EEC00AC80F49005200F0EEE00A28BFA2
:1015C0000C3011F1807F38BF12F1807F0CD28A423B
:1015D00038BF80F00400124214D034BF80EE800A7D
:1015E00080EE200A01F06EB911F1807F08BF80F013
:1015F000040098BF12F1807F08D88A4214BF0022ED
:101600004FF07E5200EE102A01F05CB96FF00041FD
:1016100000EE101A704700004FF0807C1CEB400F6A
:1016200094BF1CEB410F05E040EA010C5FEA4C0C53
:1016300001D28842704718BF81427047F0B540F22E
:10164000FF7581EA030C0CF0004C15EA11541DBF24
:1016500015EA1357AC42AF42E5E0BC41C1F31301B8
:10166000C3F31303801A994143F4801304D2641E18
:101670004000494180185941C90241EA5051B1FB2B
:10168000F3F603FB1611A2FB0675D7EBC020A941A8
:1016900002D2761E80185941C90241EA5051B1FB6D
:1016A000F3FE03FB1E11A2FB0E75D7EBC020A94170
:1016B00003D2AEF1010E80185941890241EA9051DE
:1016C000760546EA8E2EB1FBF3F603FB1611A2FB5C
:1016D0000675D7EB8020A94102D2761E80185941A9
:1016E000C90241EA50514EEA060EB1FBF3F603FB84
:1016F0001611A2FB0675D7EBC020A94102D2761EB7
:1017000080185941C90241EA5051B1FBF3F703FB7C
:101710001711A2FB0735D3EBC020A94167F10007E1
:101720000CBF004247F0010766F3D5274FEA1E3190
:10173000B80814F5806412DDBD0775F1004250EB66
:101740000E5051EB045111F5801F5CBF41EA0C01B2
:10175000F0BD4CF07F6141F0E0410020F0BDBD07DD
:101760006D0840EA0E5041F48011D4F10104B4F147
:1017700020060ADAC4F120060200E04001FA06F36E
:10178000E1401843B24015430EE0342C13DCC6F19F
:10179000200445EA40056D0820FA06F2154321FAB7
:1017A00006F0A1400D43002175F1004250F1000008
:1017B00051EB0C01F0BD00205FEA0C01F0BDCFB988
:1017C00092185B41B3FA83F704BFB2FA82F6BF19ED
:1017D0000B3FB7F120062FBF02FA06F3BB40C7F15B
:1017E000200622FA06F638BF3343BA401CB1E4198A
:1017F000641E33E77F4231F00041B1FA81F404BF47
:10180000B0FA80F6A4190B3CB4F120062FBF00FA01
:1018100006F1A140C4F1200620FA06F638BF314394
:10182000A0403C1B1AE7AC421ABF05EA1357AF426F
:1018300012E050EA41061CBF52EA4306BFE750EAF5
:101840004107304661461CBF41EA0551F0BD52EAEE
:10185000430C08BFC143F0BD00204FF4001616EB47
:10186000410F98BF16EB430F08BF16EB410F24BF83
:10187000C14305E016EB430F0CBF61464CEA05512E
:10188000F0BD0000B0B581EA030C0CF0004C40F252
:10189000FF7515EA11541DBF15EA1357AC42AF424C
:1018A00039E0E41923EA455343F48013C90241F0B7
:1018B000004141EA505EC7021100A7FB0202002866
:1018C0004FF00000EEFB01204FF00001E3FB072189
:1018D00018BF42F00102401800214941E3FB0E010C
:1018E000A4F580640F0302D252004041494154F1F3
:1018F00001046CDD470872F1004250F1000051EB29
:101900000451A1F580115CBF41EA0C01B0BD4CEA65
:1019100005510020B0BD05EA1357AC4214BFAF42D9
:1019200041E050EA410E1CBF52EA430E02E061461C
:101930000020B0BD24423C441BD15FEA070EF6D024
:10194000090302BF01460020AEF1140EB1FA81F77F
:10195000AEEB070401FA07FE0C37C7F1200100FACD
:1019600007F7C8404EEA000E23EA455343F48013BC
:10197000A2E733F00043B3FA83F704BFB2FA82FE62
:1019800077440B3FE41BB7F1200E2FBF02FA0EF392
:10199000BB40C7F1200E22FA0EFE38BF43EA0E0309
:1019A000BA40641C82E750EA410E14BF52EA430E6B
:1019B0006FF000014FF4001717EB430F8ABF194671
:1019C00017EB410FB5E74CEA05510020B0BDD4F14B
:1019D0000104B4F120070FDAC4F12007520828BF30
:1019E00042F0010210FA07F501FA07F7E1BF2A43B6
:1019F000E0403843E1400FE0352C98DCC7F120048B
:101A000052EA400220FA07F218BF42F0010231FA0E
:101A100007F0A1400A43002172F1004250F100009A
:101A200051EB0C01B0BD000070B44FF0004591EADD
:101A3000030F44BF6B40FFF73BBD00BF841A71EB3F
:101A4000030604D26E40001BB141121973414FF4DA
:101A5000001C1CEB410F34BF7CEB430684E00C0DF3
:101A6000A4EB1356362E7DDC012E43DC45EAC3235E
:101A700043EA525312BFD20292025B08240545EAA0
:101A8000C12141EA5051D2EBC020994125D407D160
:101A9000B0FA80F610FA06F164D00020203608E093
:101AA000B1FA81F6B140C6F1200220FA02F21143E8
:101AB000B0404FEAF474B4EB465434F001064FEAF8
:101AC00074040AD8D6F50016760D04F00044F040F0
:101AD00061FA06F25040F1404840C00A40EA4150E5
:101AE00021F0004128BF5FEA500550F1000044EBAF
:101AF000D12137E045EAC323DB0A45EAC121C90AFF
:101B0000B6F120050EDD42EA0242120CC5F12006B4
:101B100003FA06F6EB4042EA06056D42984161F190
:101B200000010DE062FA06F5F240554063FA06FC4A
:101B300082EA0C02F3405A406D42904161EB03018E
:101B400011F4801F05D1641E620502D06D00404172
:101B5000494121F48011430875F1004350F1000020
:101B600041EB045170BC70471CEB410F15D223F0C0
:101B7000004352EA43060BD04FEA4C0CBCEB410F3A
:101B800004D80C0D661E342EB7DDEBE7801A9941A0
:101B900050EA410608BF0021E4E708BF1CEB430FF1
:101BA00028BF6FF00001DDE700B583B001214FF0E1
:101BB0008050FFF79FF901210120FFF792F90121E1
:101BC0004FF40010FFF784F901214FF40030FFF7C4
:101BD0007FF94FF4C050009003208DF805000220DB
:101BE0008DF804000020ADF8060000A94FF09040E9
:101BF00000F012FC0E220B214FF0904000F04EFC42
:101C00000E220C214FF0904000F048FC01210020F2
:101C1000FFF7FCF9122000F0E8FC454812210160B2
:101C200000210171082141710121817100F05CFCEA
:101C3000002000F0DAFC07BD80B50020FFF745F971
:101C4000BDE8044001214FF40000FFF753B93A48C2
:101C500003210160002000F0C8BC80B50120FEF720
:101C6000F7FFFEF7FBFF354908701120FFF75DF91C
:101C70000028FAD00120FFF709F81920FFF755F9DD
:101C80000028FAD00220FFF705F8FFF70BF8082824
:101C9000FBD12B492848897A002914BF052101214D
:101CA000016001BD80B54FF4A06000F0B3FC1420CA
:101CB0008DF8000002208DF8010000208DF8020050
:101CC000012000F012F82A208DF8000001208DF884
:101CD000010000F00AF806208DF8000000208DF8C1
:101CE000010000A800F09BFC01BD8DF8030000A8D6
:101CF00000F095BC0F4A00284FF48041104618BFF1
:101D000000F0CABB00F0C6BB38B50E480168446895
:101D1000806840180BD00C4D0822A91C00F016F862
:101D200005F112012046BDE8384004220EE031BD25
:101D300004020020001000482C0200203A0200207B
:101D4000DC010020E8F7FF1FC000002030B50023B1
:101D5000002506E001F8134001EB43040001657023
:101D60005B1C934205DA040F0A2C34BF303437343D
:101D7000F0E730BD0448054AC061022101724262A9
:101D80000349016208680047DC0100205C00002074
:101D90000000002010B582B004460020ADF800001D
:101DA00000F08AF800F01DF8A2781143E2781143A0
:101DB00008438DF80100217962799DF800001143F4
:101DC000A27900F008F820210DF1010000F03AF8A6
:101DD000012223210BE0114308438DF8000001226A
:101DE0007047217862789DF801001143704700A880
:101DF00000F028F813BD10B582B00446012221215D
:101E000000A800F036F89DF8000000F0C0008DF842
:101E1000000021786278FFF7DEFF2121E7E710B5A7
:101E200082B0044600F00AF89DF8000000F0EF00D0
:101E300020438DF8000001222421D8E7012224212B
:101E400000A816E0F8B5164604460D46022E28BF37
:101E500045F0400500F02BF8284600F0C6F804E0F5
:101E600014F8010B00F0C1F8761EB6B2002EF7D1BF
:101E700017E0F8B515460446022D2CBF41F0C00608
:101E800041F0800600F013F8304600F0AEF805E0AF
:101E9000002000F0AAF804F8010B6D1EADB2002D71
:101EA000F6D13846BDE8F440082100F0F3BA644F9B
:101EB0000821384600F0F0BA10B588B001214FF47F
:101EC0008050FFF70EF801214FF40030FFF700F8C3
:101ED00000F080F800F07EF800F07CF80522052183
:101EE00000F074F80522062100F070F805220721A1
:101EF00000F06CF802208DF804000020ADF8060018
:101F000003208DF80500202000F069F8802000F003
:101F100066F8402000F063F84A4C204600F024FDAB
:101F20000020ADF808004FF4E060ADF80C00002090
:101F3000ADF80E00ADF810004FF40070ADF81200CF
:101F40001020ADF814000020ADF816000720ADF801
:101F500018004FF48270ADF80A0002A9204600F084
:101F600035FD4FF48051204600F079FD01212046D7
:101F700000F06BFD0820009001208DF80400002087
:101F800000F01AF800A92E4C00F01DF80821204698
:101F900000F080FA0120009000208DF8040000F08D
:101FA0000BF800208DF8070000F00CF802200090DC
:101FB00000F008F808B010BD8DF8060003208DF879
:101FC0000500704700A9204600F026BA4FF0904067
:101FD00000F064BA01214FF40010FEF779BF0090C1
:101FE00000A94FF0904000F017BAF8B5164D154F04
:101FF0004FF4805604462E600221384600F03DFD25
:1020000028B92868411E29600028F5D10EE0214634
:10201000384600F028FD2E600121384600F02DFDE5
:1020200040B92868411E29600028F5D1FEF70FFE4F
:10203000C0B2F2BD3846BDE8F24000F016BD000067
:1020400000100048003001403C01002000EE100A62
:10205000B8EEC00A10EE100A7047000010B582B04A
:1020600004460020ADF8000000F042F921786278C3
:102070009DF801001143A278114308438DF8010037
:10208000217962799DF800001143A2791143E27829
:10209000114308438DF800000DF101022021322088
:1020A00000F053F800AA23211DE010B582B000F023
:1020B0000FF89DF8000000F00C008DF8000021786A
:1020C00062781143A2781143E2781143084306E095
:1020D0000446012300AA2121322098E020438DF8F4
:1020E000000000AA2121322000F02FF813BD10B506
:1020F00082B0044600208DF80200ADF8000000F028
:10210000F7F8217862789DF80200114308438DF8B2
:1021100002009DF80100E17808438DF801009DF868
:102120000000A17808438DF800000DF102020021A3
:102130003C2000F00AF80DF1010201213C2000F0E2
:1021400004F800AA02213C20CEE72DE9F843A44D73
:10215000A44F4FF420468046894614462E604FF423
:10216000004100F04CF818B100F04CF8F7D135E020
:102170004FF4005000904FF0807300F03AF82E605A
:1021800000F03CF818B900F03DF8F9D126E04946D6
:10219000384600F0C1FC2E60802100F030F818B9FC
:1021A00000F030F8F8D119E0002000904FF00073F3
:1021B00000F01FF82E6000F021F818B900F022F8A6
:1021C000F9D10BE02178384600F0A6FC2E602021E2
:1021D00000F015F830B900F015F8F8D1FEF736FD2B
:1021E00080B204E02021384600F0A2FC0020BDE8C7
:1021F000F28301224146384600F07ABC022138467B
:1022000000F08FBC2868411E2960002870472DE926
:10221000F047734FDFF8CC914FF4204582B08246EF
:102220000C4690461E463D604FF4004100F058F8C1
:1022300018B100F058F8F7D147E04FF40050009083
:10224000002301225146484600F052FC3D60022125
:1022500000F046F818B900F046F8F8D135E0022E43
:1022600028BF44F080042146484600F055FC3D60FC
:10227000402100F035F818B900F035F8F8D124E025
:102280004FF4105000904FF00073F2B251464846A0
:1022900000F02EFC05E0484600F040FC08F8010B79
:1022A000761EB6B2002E3D6008D0042100F018F86A
:1022B0000028F0D100F017F8F7D106E0202100F057
:1022C0000FF830B900F00FF8F8D1FEF7BFFC80B27C
:1022D00004E02021484600F02BFC0020BDE8F687F2
:1022E000484600F01EBC3868411E3960002870471F
:1022F00030B58BB001214FF40010FEF7FBFD01213A
:102300004FF48020FEF7E4FD00F079F800F077F854
:1023100000F075F8344C04220621204600F0BEF887
:1023200004220721204600F0B9F802208DF80400AD
:1023300000208DF8060002208DF8070003208DF89C
:102340000500402000F056F8802000F053F80020EF
:102350008DF80400ADF8060003208DF80500042078
:10236000009000A9214C204600F056F802210420DC
:1023700000F0A6F80220029000208DF80C00082042
:102380008DF80D0001208DF80E0002A800F0ACF8C9
:102390000020079005900690089009900A9004A9E3
:1023A0001348104D0490284600F06EFB012128468A
:1023B00000F095FB1020009000208DF804008DF8AF
:1023C000060003208DF8050000208DF8070000A905
:1023D000204600F021F8202000F00CF80BB030BDB2
:1023E0004001002000540040000400480010004854
:1023F00025209000009000A9204600F00DB8012192
:102400004FF40010FEF764BD00EE100AB8EE400A6B
:1024100010EE100A70470000F0B5002201230C688E
:1024200093401C409C422AD154000325A5400E79BC
:10243000ED43012E18BF022E10D186682E40866013
:1024400086684F79A7403E438660868826EA030364
:10245000838083888E7996403343838003682B4042
:10246000036003680E79A64033430360C3682B40C2
:10247000C360C368CD7905FA04F42343C360521CDA
:10248000102ACBD3F0BD008A0022084218BF0122D7
:1024900010467047816170470185704710B5CB10B9
:1024A00000EB830001F007018900036A0F248C40D0
:1024B000A343036202FA01F1036A1943016210BDEA
:1024C00030B501F0030221F00301064B9200CC5815
:1024D0000F259540AC43CC509040CC582043C85079
:1024E00030BD000008000140F0B50268012102F093
:1024F0001F0301FA03F3DC4385795309404A002D99
:1025000058D012EB43131D682C401C6003683D4DEE
:102510005C0915EB441403F01F03256801FA03F36B
:1025200025EA0303236004680379650913EB451367
:10253000D31804F01F041D6801FA04F42C431C6036
:102540000468314B650913EB451504F01F042E6830
:1025500001FA04F426EA04042C6005682B4C6E0989
:1025600014EB461605F01F05376801FA05F527EA52
:10257000050535600568477905F01F066D096D0191
:1025800001FA06F6102F0FD15A191368334313605E
:102590000068420914EB421200F01F00136801FAB0
:1025A00000F018431060F0BD55FA87F01318186852
:1025B000304305E0007910EB4310131818682040F1
:1025C0001860F0BD012200F01F0310B59A404009C9
:1025D00040010B4B0E4C1B58205800211340104259
:1025E0001CBF002B0121084610BD00BF012100F0D7
:1025F0001F02914040094001054A115070470000F8
:102600000004014004040140080401400C0401409E
:10261000140401401849084318490860704770B510
:102620000378C4781A460121ECB1144B0F261B68BD
:10263000447803F4E063C3F5E0631B0AC3F10405C7
:10264000AC40857826FA03F32B4023430C4C1B0146
:10265000135500780B4B421100F01F0001FA00F0F7
:1026600043F8220070BD5011074A03F01F03994040
:1026700042F8201070BD00000000FA050CED00E0EB
:1026800000E400E000E100E080E100E01FB500F0C0
:1026900013F9212101601FBD4FF4001C1CEB410FF9
:1026A00094BF1CEB430F09E041EA030C50EA4C0CC9
:1026B00052EA0C0C03D2994208BF9042704714BFF3
:1026C0008B42824270470000D0B514462DED048B3A
:1026D000534A544B00F02EFA41EC180B1DD89FEDD5
:1026E000529B53EC182B51EC190BFFF7CBF800223F
:1026F0004F4BFEF7D3FE06460F4653EC182B51EC1A
:10270000190BFEF7CBFE02460B4630463946FEF764
:1027100095FF41EC180B44F0010451EC180B00221A
:10272000444BFFF7B9FF05D301224FF0795300F076
:1027300001FA51D853EC182BFFF7A4F841EC190B10
:1027400053EC182BFFF79EF806460F4653EC192B57
:1027500039483A49FFF796F8394A3A4BFEF79EFE58
:1027600053EC192BFFF78EF8374A384BFEF796FEDD
:1027700032463B46FFF786F853EC182BFEF78EFEE9
:1027800006460F4653EC192B31483249FFF77AF8C9
:10279000314A324BFEF782FE53EC192BFFF772F8E9
:1027A0002F4A304BFEF77AFE53EC192BFFF76AF8ED
:1027B0002D4A2E4BFEF772FE53EC192BFFF762F8F1
:1027C0002B4B0022FEF76AFE02460B463046394686
:1027D000FEF734FF41EC180BA00705D551EC180BA0
:1027E00081F0004141EC180B14F007020BD00FF2FE
:1027F000880303EBC20251EC180B53681268FEF712
:102800004DFE41EC180B200705D551EC180B81F05B
:10281000004141EC180B51EC180BBDEC048BD0BD02
:1028200057CD9E5E1426D13FAA4C58E87AB6FB3F9E
:102830000000F0BF000040BE845D57134B57B03F0F
:10284000B2934C19ED5EE43FBEDE02B90240F83FA0
:10285000DE39028FC7C0743F8AAB1283000CC83FB9
:1028600024D7E508B6D8F03F0F34580E5895FD3FF1
:102870000000F03F00000000000000000000000029
:1028800066732D3852C1E03F182D4454FB21F93FA7
:1028900066732D3852C1F03F182D4454FB21F93F87
:1028A00066732D3852C10040182D4454FB21094055
:1028B0003FD038C6A6F10440014800F052B90000EC
:1028C000340200201AA210EE101ADFF860C0F2ECF9
:1028D000060A614509DB00EE803A70EE800A83EE5D
:1028E000200A40F0020010EE101A21F0004CDCF13A
:1028F000665C0BD860EE000A20EE203A03EE010A77
:1029000001EEA02A42EE202A80EE220A400810F0B2
:10291000020F18BFB1EE400A02EB8002D2ED000AAE
:1029200030EE200A28BFB1EE400A7047A430893E3D
:10293000D7B3DD3F6AD5033F2B94A93DB82A593F51
:102940000000803F000080BF00000000920A063FA8
:10295000DB0FC93F920A863FDB0FC93F920A064050
:10296000DB0F4940368D274080B5154988420BD191
:1029700001214FF48050FEF7C6FABDE80440002163
:102980004FF48050FEF7BFBA0E49884208D10121AA
:102990004FF48040FEF7C0FA00214FF480400AE077
:1029A000094988420BD101214FF40040FEF7B4FAE7
:1029B00000214FF40040BDE80440FEF7ADBA01BD70
:1029C0000030014000380040003C00404A88B2F529
:1029D000827F19D102880B8802F441521A43CB88B6
:1029E0001A430B891A434B891A438B891A43CB89A3
:1029F0001A4342F4827202804FF2FF0382881A4027
:102A00008B881A43828018E04FF2FF0382881A40B5
:102A10008B881A43828002880B8802F441521A4341
:102A20004B881A43CB881A430B891A434B891A43A4
:102A30008B891A43CB891A4302804FF2FF73828B32
:102A40001A408283098A018270470029018812BFD7
:102A500041F040014FF6BF721140018070478288FB
:102A60004EF6FF7303E001737047007B70471A4016
:102A70008280828811438180704700890022084249
:102A800018BF0122104670470268204B52085200BE
:102A9000026002681A404B681A438B6842EA0322BC
:102AA00002600A6822F070620261026842F001026C
:102AB000026000228260C2608A690B691A438260E8
:102AC000826842F4004282600268CB681A43026066
:102AD00042680F4B49691A40114341607047002911
:102AE000016812BF41F001014908490001607047C7
:102AF00070B5049C4568074E3540890555EA9151EB
:102B000041EA024119432143416070BDFFE0CF001B
:102B1000FF7FFF07009800FC81627047406AC0B2E7
:102B2000704780690022084218BF01221046704792
:102B3000C16170474FF4001C1CEB410F94BF1CEBAC
:102B4000430F09E041EA030C50EA4C0C52EA0C0C2A
:102B500003D28B4208BF8242704714BF9942904211
:102B60007047704710B5DFF8884700B92BE000F0D8
:102B700099F80068804720680A3010BD80B5DFF8FA
:102B80007007DFF8702700685278C1788A420CD34A
:102B90008278002A04BF8288002A06D1817200F060
:102BA00081F840688047002002BD022002BD10B5B8
:102BB000DFF83C4700B906E000F074F88068804711
:102BC00020680C3010BD206801210182002010BD5A
:102BD00010B5DFF81C47DFF8202720681268C1789D
:102BE00040799269904721688A7A92B1002804BF9F
:102BF000087900280DD1887858B900F053F8C068DA
:102C0000804720684179C1722068C1780173002033
:102C100010BD022010BD1CB5DFF8D416096810B92C
:102C2000022008823CE0DFF8D44600202080002209
:102C300008787F23184215D1487A81064CBF42F0AC
:102C4000020102F0FD0121704006217854BF01F01D
:102C5000FE0041F00100207000F024F80069804778
:102C6000204616BD00F07F03012BF9D000F07F0055
:102C7000022815D14879DFF8883600F00F010006E8
:102C800053F8210042F0010205D500F03000102871
:102C9000E2D12270E0E700F44050B0F5805FF7E742
:102CA000002016BDDFF85C0600687047F8B5DFF855
:102CB00040060068017811F07F0104D1417A01F0EB
:102CC000DF0141724FE0022901BF418800290179EB
:102CD00000294AD14179DFF8284621F080050A060B
:102CE00054F825204CBF02F0300202F44052DFF8C5
:102CF00004361B789D4238D2002A1CBF807A0028F7
:102D000033D0080654F825000BD500F03000102809
:102D100025D1284600F076FB3021284600F01DFB27
:102D20001DE000F44050B0F5805F18D148F28006F5
:102D30004BF68F7745B900F0BAFA2068384080F436
:102D40004050304320600AE0284600F049FB54F828
:102D50002500384080F44050304344F82500FFF708
:102D6000A1FF406980470020F2BD0220F2BD38B5C6
:102D7000DFF87C05DFF888150268537923F08000BE
:102D80001C0651F820404CBF04F0300404F44054B9
:102D9000DFF860552D78A84206D2558825B9002C59
:102DA0001CBF927A002A01D1022032BD1B0651F8C5
:102DB000203048F2800205D548F6BF74234083F0E6
:102DC000100304E04BF68F74234083F480531A43BE
:102DD00041F82020FFF766FF80698047002032BD60
:102DE00080B5DFF80C050068417A41F0200141729E
:102DF000FFF758FFC0698047002002BDDFF8F024CC
:102E00001268538A20B98888C01A1082002070473F
:102E1000086818187047F8B5DFF8D454286800F12E
:102E20001004A1682688080018BF002E14D0A088BE
:102E3000864288BF06463046884707462088801B62
:102E40002080608830186080002000F0F7FA01468A
:102E50003246384600F058FB2088DFF8AC6450B1A9
:102E6000DFF8A8044FF4405101800021002000F059
:102E7000ECFA302030802188A2882868914228BF4F
:102E8000032101D211B105210172F1BD06210172A8
:102E90000022DFF87C04DFF87C14006880B241F87F
:102EA000102030203080F1BD2DE9F843DFF8404498
:102EB000DFF85454206800F110063188002904BF5F
:102EC000007A042816D1DFF85004017801290DD1C9
:102ED000DFF83C14DFF83C24096889B2002342F88B
:102EE000113030212980042703702CE0102007279F
:102EF000288028E0B6F80480884505D3042741459A
:102F000088BF4146884600E00227B16840468847AE
:102F10008146002000F091FA01464246484600F002
:102F2000DEFA4146002000F090FA3088A0EB08005D
:102F300030804FF4405170884044708030202880A9
:102F4000DFF8C803018020680772BDE8F18338B557
:102F5000DFF89C437F22206801784578114238D100
:102F6000092D02D1FFF70AFE47E0052D1BD1C178DC
:102F700080294FD28178002901BF81880029807A79
:102F8000002847D1DFF88813DFF88823096889B261
:102F9000002342F811300620DFF86C1330220A803B
:102FA0002168087231BD032D08D1C178012904BF01
:102FB0008088002823D1FFF713FF1EE0012D04BFF6
:102FC000C17801291BD18188C9B9407A80060DD406
:102FD00015E001F07F00012804D10B2D0FD1FFF780
:102FE000F7FD0AE002280AD1012D02D1FFF75EFEAB
:102FF00003E0032D03D1FFF7BAFE0028C2D0BE497B
:103000002846096849698847032808BF0920C7D0AE
:103010000028B7D00820C3E738B5B54DB64C2868AE
:103020004178062913D101787F2211422AD1807874
:10303000012802D12068C1696AE0022802D1206813
:10304000016A65E003281DD12068416A60E000291B
:103050003FD14188002904BFC188022912D10179DA
:1030600081B901787F22114204BF8288002A2ED0C4
:1030700001F07F02012A10D100F08BF810B9286806
:10308000807A20BB2868216840780969884703282E
:1030900047D128680921017231BD01F07F01022961
:1030A000F0D14079964B00F00F0100F0700200065D
:1030B00053F821004CBF00F0300000F440508D4B1D
:1030C0001B789942DED2002ADCD10028DAD093495D
:1030D0001EE0082905D100787F210842D2D190490D
:1030E00016E00A2902BF017801F07F010129C9D148
:1030F000817A0029C6D04188002901BF01790029C1
:10310000C1880129BED100F044F80028BAD1854910
:103110000800B7D0286800224282816100208847D9
:10312000002029684FF6FF730A8A9A4208BF0920D7
:1031300004D0022818BF002A02D10820087231BD2D
:10314000087800061ED5C88800902368009C944229
:1031500002D2009808820FE082420DD293F82C0030
:103160006D4C824238BF002005D392FBF0F500FB86
:10317000152008B90120207093F82C008882BDE842
:10318000314091E6032008724FF440515F480180BE
:1031900031BD2268407992690021104738B55C48FA
:1031A00061490068524C80B231F81000216840003B
:1031B0000A7A00F1804000F5C040092A14D010F8C6
:1031C000012B0A70216810F8012B4A70851C35F814
:1031D000040B00F07FF921684880288800F07AF914
:1031E00021688880A888C880012120680172206831
:1031F000C08810B9FFF7ABFE01E0FFF70DFFBDE897
:1032000031403EE010B53A4C2068017A022918BFDF
:10321000042904D1FFF748FE2068007A14E006294B
:1032200011D14178052902BF01787F22114206D1D0
:10323000C07800F042F8FFF735FD006A80472E485D
:10324000006880688047082017E010B5284C206887
:10325000007A022818BF04280ED0032818BF0528BA
:1032600004D1FFF7D8FD2068007A06E0072803D1D3
:1032700021480068C0688047082021680872BDE8BE
:10328000104080B500F013F819480068017A082949
:1032900006D11E494FF480520A8010221A490A8032
:1032A000007A092801D1012002BD002002BD1F487B
:1032B00090F82C10002000F0CFB870B50D49104BDD
:1032C0000978002248F68F760BE0D4B253F82450E8
:1032D0003540254345F4004545F0800543F824502A
:1032E000521C8A42F1D3124940F08000086070BD40
:1032F000F801002044010020FC0100201C020020F5
:10330000005C004000020020220200202002002079
:10331000505C0040046000403B020020172C000875
:10332000652B0008AF2B000808600040000000205B
:103330004C5C0040704700004FF6F8710840DFF821
:103340007C110860704710B5DFF8742148F68F14BF
:1033500052F820302340194324E010B5DFF86021F3
:1033600048F6BF7452F820302340CC0648BF83F0A3
:103370001003890648BF83F020030FE010B5DFF883
:1033800040214BF68F7452F820302340CC0448BFC4
:1033900083F48053890448BF83F4005343F400410D
:1033A00041F0800142F8201010BDDFF814114BF6F7
:1033B0008F7351F820201A4082F4405242F40042A8
:1033C00009E0DFF8FC1048F68F6351F820201A401E
:1033D00042F40042FFE742F0800241F820207047AB
:1033E000DFF8DC1051F8202052040AD551F82020D3
:1033F00048F68F731A4042F4404242F0800241F88E
:1034000020207047DFF8B81051F8202052060AD566
:1034100051F8202048F68F731A4042F4004242F0DF
:10342000C00241F82020704732E0244A490812685F
:1034300092B202EBC000234A31E034E01F49096830
:1034400089B201EBC0001F4933E01C4A126892B2F6
:1034500002EBC0001C4A23E0184A3F29126892B2CE
:1034600002EBC000194A02EB400009D34A091F23AE
:10347000194208BF521E1204910941F4004105E0AF
:103480004A08C90748BF521C1204910901607047DD
:103490000A4A4908126892B202EBC0000C4A49007D
:1034A00042F8101070470549096889B201EBC00065
:1034B000074951F8100080B270470000505C00408E
:1034C000005C004008600040046000400C60004068
:1034D000006000400106090C41EA1020704710B559
:1034E000490001F18041521C01F5C041521009E030
:1034F00010F8013B10F8014B43EA042321F8023B8A
:10350000891C521EF4D110BD490001F18041521CAA
:1035100001F5C041521004E051F8043B20F8023B91
:10352000521EF9D17047000080B5FEF7EDFB6448EC
:1035300000210068817200F0D9F800F03FF9002105
:103540006048016001BD80B55D48002201688A7253
:103550000168CA725C490068C97941720020FFF7AE
:10356000EBFE4FF400710020FFF7EDFE102100206C
:10357000FFF7F3FE18210020FFF757FF5821002026
:10358000FFF752FF0020FFF71CFF504890F82C1067
:103590000020FFF761FF0020FFF707FF4FF4C06135
:1035A0000120FFF7D0FE4FF480710120FFF73CFFB0
:1035B00004210120FFF749FF00210120FFF7DEFE73
:1035C00020210120FFF7C9FE0020FFF776FE3D48CD
:1035D0000121016001BD3E48807A10B139480521C2
:1035E0000160704737480421016070477047704799
:1035F00080B53349062809680A7811D102F07F00A6
:10360000012804BF4879002814D18878222808BFEF
:103610000FF271020CD021280CD10FF2710207E0D9
:1036200002F07F02212A08BF032803D10FF27D0296
:10363000100001D1022002BD8A610020488290471B
:10364000002002BD1E490968097801F07F01212987
:1036500003D10B2808BF00F021B8022070471D4994
:10366000FFF7CCBB1C49FFF7C9BB15490968C978EE
:10367000052901DB00207047184A02EBC101FFF762
:10368000BDBB00001649FFF7B9BB00001549FFF7A5
:10369000B5BB00290CBF002802207047084812491A
:1036A0000068C078086000207047000028B904480E
:1036B000012100680182002070470B48704700001C
:1036C000F80100202C020020243A0008000000200D
:1036D000DC010020140100201C010020A0000020BB
:1036E000240100202C0100202802002080B50120A8
:1036F000FEF700FB2E482F4A0121016000210160E6
:1037000041604FF4E05111800160002002BD284863
:10371000016841F0080189B20160016841F00401CB
:1037200089B20160FEF793BA10B5214C4FF6FB71D8
:10373000206808402060FEF790FA4FF43F40206078
:1037400010BD000010B51C4C072818BF2070217850
:103750001748052929D8DFE801F00306090D141ED2
:10376000FFF7E2FF21E0FFF7DFFF08E002206070D3
:1037700003201BE06078401E60706078B8B90420B8
:1037800014E0016841F0100189B201600520207049
:103790000A20607010BD6178491E6170617831B98E
:1037A00001684FF6EF72114001600620207010BDD5
:1037B000405C004038020020300200200448054AE6
:1037C000002141604FF43F411180016000207047AB
:1037D000405C0040380200202DE9F84F0020ADF891
:1037E000000040F68F7848F60F7B48F28006444F81
:1037F000444CDFF81491DFF814A14BF6BF7525E0B7
:1038000054F82010ADF80010BDF8001009040BD5D5
:1038100054F8201008EA010144F820103C4901EB5B
:10382000800050F8040C8047BDF8000000060DD55C
:1038300099F8000054F820100BEA010144F8201018
:10384000344901EB800050F8040C8047606CAAF802
:103850000000000452D5BAF8000010F00F0089F8FB
:103860000000CDD120683880388800F030007880A2
:10387000388800F4405038802068284080F4005098
:1038800080F0200030432060BAF80000C0062068B5
:1038900005D40BEA00002060FFF7B4FC16E0ADF899
:1038A0000000BDF80000000506D5206808EA000009
:1038B0002060FFF773FC09E0BDF800000004C5D5E7
:1038C000206808EA00002060FFF7BFFC2068398804
:1038D0002840C90448BF80F480503988890448BF13
:1038E00080F400507988C90648BF80F010007988BC
:1038F000890648BF80F0200030432060BDE8F18F8A
:1039000020020020005C00403C0200202602002033
:10391000F8000020DC0000203648374A016841F4F6
:103920007001016082B03548016841F00101016019
:103930004168114041600168314A114001600168ED
:10394000304A21F480210160416821F4FE01416088
:10395000C16A09090901C162016B114001630021BB
:10396000816001910091016841F4A021016001682A
:1039700001F4003100910199491C0191009919B994
:103980000199B1F5A06FF2D10168490C01F0010174
:1039900000910099012926D11B4912220A60416831
:1039A000416041684160416841F480614160416823
:1039B00021F47C114160416841F4E81141600168E3
:1039C00041F08071016001688901FCD54168890876
:1039D00089004160416841F002014160416801F0A5
:1039E0000C010829FAD14FF00061084802B00160CB
:1039F0007047000088ED00E00CC07FF80010024026
:103A0000FFFFF6FECCFC00FF0020024008ED00E0C6
:103A1000120100020000004083041057000201025E
:103A20000301000009022200010100E03209040044
:103A3000000103010200092100010001224A0007E0
:103A4000058103040020000005010902A10109010C
:103A5000A100050919012903150025019503750128
:103A60008102950175058101050109300931093887
:103A70001581257F750895038106C0093C05FF095E
:103A8000011500250175019502B12275069501B158
:103A900001C00000040309042603530054004D0034
:103AA0006900630072006F0065006C0065006300D0
:103AB000740072006F006E00690063007300000004
:103AC0001E03530054004D003300320020004A0012
:103AD0006F00790073007400690063006B000000E0
:103AE00070B5294D294C2868294E6080608831883E
:103AF0000840000448BFFFF76FFE60883188084027
:103B0000400505D54FF6FF302860224840688047C1
:103B1000308861880140890444BF4DF6FF712960F7
:103B200061880840C00405D54EF6FF70286000206B
:103B3000FFF708FE60883188084000050BD516485D
:103B4000007810B1FFF7E3FD02E00220FFF7FAFD75
:103B50004FF2FF702860308861880140890505D5E3
:103B60004FF6FF5129602178491C21706188084077
:103B7000C00507D54FF6FF6028600720BDE87040FC
:103B8000FFF7E0BD70BD00BF445C00402402002090
:103B90003802002000000020490100207047FEE7A5
:103BA000FEE7FEE7FEE770477047704780B5FDF718
:103BB00009F817480168491E016016480178491C38
:103BC000017001BD38B50020FEF7FCFC01281DD1B5
:103BD0000020FDF767FAC8B10F4C104D002000F02F
:103BE00021F80020FDF75EFA0028FAD100F01AF85B
:103BF0000B480168491C01600168032924BF0021AA
:103C00000160BDE832400020FEF7EFBC31BD00008E
:103C1000340100204E01002018020020FFFF0700A1
:103C2000B001002001E02068401C20602068A8420C
:103C3000F9D37047FFF754BF80B50020FFF782FD2E
:103C4000BDE802401220FEF7D0BC000010B50749C5
:103C500079441831064C7C44163404E0081D0A6887
:103C6000511888470146A142F8D110BD0800000054
:103C70002800000053D5FFFFF40000004C01002095
:103C800000000000C7D4FFFF4C010000BC01000091
:103C900000000020000000004EF68851CEF2000126
:103CA000086840F4700008604FF00070E1EE100A00
:103CB0007047000000F009F8002801D0FFF7C6FFA8
:103CC0000020FCF761FA00F002F80120704700F0D4
:103CD00001B800000746384600F002F8FBE7000094
:103CE000C046C046024A11001820ABBEFBE700BF29
:103CF00026000200014880470148004719390008A2
:103D0000113D000801480121017070474801002061
:103D1000C046C046FFF7C0FFFFF7CCFFFFF73EBF2E
:103D2000FFF73DBFFFF73CBFFFF73BBFFFF73ABFD1
:103D3000FFF739BFFFF738BFFFF737BFFFF736BFD1
:103D4000FFF7FEBFFFF7FEBFFFF7FEBFFFF7FEBFA7
:103D5000FFF7FEBFFFF7FEBFFFF734BFFFF7FEBF61
:103D6000FFF7FEBFFFF7FEBFFFF7FEBFFFF7FEBF87
:103D7000FFF7FEBFFFF7FEBFFFF7FEBFFFF7FEBF77
:103D8000FFF7FEBFFFF7FEBFFFF7FEBFFFF7FEBF67
:103D9000FFF750BFFFF7FEBFFFF7FEBFFFF7FEBF05
:103DA000FFF7FEBFFFF7FEBFFFF7FEBFFFF7FEBF47
:103DB000FFF7FEBFFFF7FEBFFFF7FEBFFFF7FEBF37
:103DC000FFF7FEBFFFF7FEBFFFF7FEBFFFF7FEBF27
:103DD000FFF7FEBFFFF7FEBFFFF7FEBFFFF7FEBF17
:103DE000FFF7FEBFFFF7FEBFFFF726BFFFF7FEBFDF
:103DF000FFF7FEBFFFF7FEBFFFF7FEBFFFF7FEBFF7
:103E0000FFF7FEBFFFF7FEBFFFF7FEBFFFF7FEBFE6
:103E1000FFF7FEBFFFF7FEBFFFF7FEBFFFF7FEBFD6
:103E2000FFF7FEBFFFF7FEBFFFF7FEBFFFF7FEBFC6
:103E3000FFF7FEBFFFF7FEBFFFF7FEBFFFF7FEBFB6
:103E4000FFF7FEBFFFF7FEBF293500084735000822
:103E5000ED350008EF350008F1350008453600085B
:103E6000933600085F360008653600086B36000898
:103E700000000000400000000000000001020304F8
:103E80000102030406070809000001000200040003
:103E9000060008000A000C0010002000400080000E
:103EA0000001000035330008D7350008353300081D
:103EB0003533000835330008353300083533000842
:103EC00035330008E53500080010004800100048B0
:103ED0000010004800100048001000480010004882
:103EE0000010004800100048943A00080400000048
:103EF000983A000826000000C03A00081E000000A2
:103F0000C00000201A0000001A03530054004D00A6
:103F100033003200310030000000000000000000DB
:103F200000000000053D0008353300083533000867
:103F300035330008353300083533000835330008C1
:103F400035330008353300083533000835330008B1
:103F5000353300083533000835330008103A0008BF
:103F600012000000243A000822000000483A00082D
:103F70004A000000363A0008090000006400000012
:103F8000000000480010000000A000000201000036
:043F9000010100002B
:0400000508003D11A1
:00000001FF
